{"abi":[{"type":"constructor","inputs":[{"name":"_tokenAddress","type":"address","internalType":"address"},{"name":"_performanceNft","type":"address","internalType":"address"}],"stateMutability":"nonpayable"},{"type":"fallback","stateMutability":"payable"},{"type":"receive","stateMutability":"payable"},{"type":"function","name":"TASK_DEADLINE_BUFFER","inputs":[],"outputs":[{"name":"","type":"uint256","internalType":"uint256"}],"stateMutability":"view"},{"type":"function","name":"claimReward","inputs":[{"name":"taskId","type":"uint256","internalType":"uint256"}],"outputs":[],"stateMutability":"nonpayable"},{"type":"function","name":"createTask","inputs":[{"name":"autoDriveCid","type":"string","internalType":"string"},{"name":"totalReward","type":"uint256","internalType":"uint256"},{"name":"deadline","type":"uint256","internalType":"uint256"}],"outputs":[],"stateMutability":"nonpayable"},{"type":"function","name":"depositTokens","inputs":[{"name":"amount","type":"uint256","internalType":"uint256"}],"outputs":[],"stateMutability":"nonpayable"},{"type":"function","name":"distributeRewards","inputs":[{"name":"taskId","type":"uint256","internalType":"uint256"}],"outputs":[],"stateMutability":"nonpayable"},{"type":"function","name":"getClaimableReward","inputs":[{"name":"taskId","type":"uint256","internalType":"uint256"},{"name":"user","type":"address","internalType":"address"}],"outputs":[{"name":"","type":"uint256","internalType":"uint256"}],"stateMutability":"view"},{"type":"function","name":"getClaimableRewards","inputs":[{"name":"user","type":"address","internalType":"address"}],"outputs":[{"name":"","type":"uint256[]","internalType":"uint256[]"}],"stateMutability":"view"},{"type":"function","name":"getParticipantTaskCount","inputs":[{"name":"participant","type":"address","internalType":"address"}],"outputs":[{"name":"","type":"uint256","internalType":"uint256"}],"stateMutability":"view"},{"type":"function","name":"getParticipants","inputs":[{"name":"taskId","type":"uint256","internalType":"uint256"}],"outputs":[{"name":"","type":"address[]","internalType":"address[]"}],"stateMutability":"view"},{"type":"function","name":"getTask","inputs":[{"name":"taskId","type":"uint256","internalType":"uint256"}],"outputs":[{"name":"creator","type":"address","internalType":"address"},{"name":"autoDriveCid","type":"string","internalType":"string"},{"name":"totalReward","type":"uint256","internalType":"uint256"},{"name":"deadline","type":"uint256","internalType":"uint256"},{"name":"participantCount","type":"uint256","internalType":"uint256"},{"name":"rewardsDistributed","type":"bool","internalType":"bool"},{"name":"tokenAddress","type":"address","internalType":"address"}],"stateMutability":"view"},{"type":"function","name":"getTaskDeadlineBuffer","inputs":[],"outputs":[{"name":"","type":"uint256","internalType":"uint256"}],"stateMutability":"pure"},{"type":"function","name":"getTaskIdCounter","inputs":[],"outputs":[{"name":"","type":"uint256","internalType":"uint256"}],"stateMutability":"view"},{"type":"function","name":"getTaskIdToTask","inputs":[{"name":"taskId","type":"uint256","internalType":"uint256"}],"outputs":[{"name":"","type":"tuple","internalType":"struct DataLabelingPlatform.TaskResponse","components":[{"name":"creator","type":"address","internalType":"address"},{"name":"autoDriveCid","type":"string","internalType":"string"},{"name":"totalReward","type":"uint256","internalType":"uint256"},{"name":"deadline","type":"uint256","internalType":"uint256"},{"name":"participants","type":"address[]","internalType":"address[]"},{"name":"rewardsDistributed","type":"bool","internalType":"bool"},{"name":"tokenAddress","type":"address","internalType":"address"}]}],"stateMutability":"view"},{"type":"function","name":"getTasksByCreator","inputs":[{"name":"creator","type":"address","internalType":"address"}],"outputs":[{"name":"","type":"uint256[]","internalType":"uint256[]"}],"stateMutability":"view"},{"type":"function","name":"getTasksByParticipant","inputs":[{"name":"participant","type":"address","internalType":"address"}],"outputs":[{"name":"","type":"uint256[]","internalType":"uint256[]"}],"stateMutability":"view"},{"type":"function","name":"getTokenAddress","inputs":[],"outputs":[{"name":"","type":"address","internalType":"address"}],"stateMutability":"view"},{"type":"function","name":"getUserBalance","inputs":[{"name":"user","type":"address","internalType":"address"}],"outputs":[{"name":"","type":"uint256","internalType":"uint256"}],"stateMutability":"view"},{"type":"function","name":"hasParticipated","inputs":[{"name":"taskId","type":"uint256","internalType":"uint256"},{"name":"user","type":"address","internalType":"address"}],"outputs":[{"name":"","type":"bool","internalType":"bool"}],"stateMutability":"view"},{"type":"function","name":"i_performanceNft","inputs":[],"outputs":[{"name":"","type":"address","internalType":"contract PerformanceNFT"}],"stateMutability":"view"},{"type":"function","name":"performTask","inputs":[{"name":"taskId","type":"uint256","internalType":"uint256"}],"outputs":[],"stateMutability":"nonpayable"},{"type":"function","name":"withdraw","inputs":[{"name":"_amount","type":"uint256","internalType":"uint256"}],"outputs":[],"stateMutability":"nonpayable"},{"type":"event","name":"RewardClaim","inputs":[{"name":"taskId","type":"uint256","indexed":true,"internalType":"uint256"},{"name":"user","type":"address","indexed":true,"internalType":"address"},{"name":"amount","type":"uint256","indexed":true,"internalType":"uint256"}],"anonymous":false},{"type":"event","name":"RewardsDistributed","inputs":[{"name":"taskId","type":"uint256","indexed":true,"internalType":"uint256"},{"name":"rewardPerParticipant","type":"uint256","indexed":false,"internalType":"uint256"}],"anonymous":false},{"type":"event","name":"TaskCreated","inputs":[{"name":"taskId","type":"uint256","indexed":true,"internalType":"uint256"},{"name":"creator","type":"address","indexed":true,"internalType":"address"},{"name":"autoDriveCid","type":"string","indexed":true,"internalType":"string"},{"name":"totalReward","type":"uint256","indexed":false,"internalType":"uint256"},{"name":"deadline","type":"uint256","indexed":false,"internalType":"uint256"},{"name":"tokenAddress","type":"address","indexed":false,"internalType":"address"}],"anonymous":false},{"type":"event","name":"TaskPerformed","inputs":[{"name":"taskId","type":"uint256","indexed":true,"internalType":"uint256"},{"name":"participant","type":"address","indexed":true,"internalType":"address"}],"anonymous":false},{"type":"event","name":"TokensDeposited","inputs":[{"name":"user","type":"address","indexed":true,"internalType":"address"},{"name":"amount","type":"uint256","indexed":true,"internalType":"uint256"}],"anonymous":false},{"type":"event","name":"TokensReceived","inputs":[{"name":"token","type":"address","indexed":true,"internalType":"address"},{"name":"from","type":"address","indexed":true,"internalType":"address"},{"name":"amount","type":"uint256","indexed":false,"internalType":"uint256"}],"anonymous":false},{"type":"event","name":"Withdraw","inputs":[{"name":"sender","type":"address","indexed":true,"internalType":"address"},{"name":"amount","type":"uint256","indexed":true,"internalType":"uint256"}],"anonymous":false},{"type":"error","name":"DataLabelingPlatform__AddressZero","inputs":[]},{"type":"error","name":"DataLabelingPlatform__AlreadyParticipated","inputs":[]},{"type":"error","name":"DataLabelingPlatform__AmountMustBeGreaterThanZero","inputs":[]},{"type":"error","name":"DataLabelingPlatform__InsufficientBalance","inputs":[]},{"type":"error","name":"DataLabelingPlatform__InvalidTokenAddress","inputs":[]},{"type":"error","name":"DataLabelingPlatform__MinimumDeadlineIs3Hours","inputs":[]},{"type":"error","name":"DataLabelingPlatform__NoParticipants","inputs":[]},{"type":"error","name":"DataLabelingPlatform__NoRewardToClaim","inputs":[]},{"type":"error","name":"DataLabelingPlatform__RewardMustBeGreaterThanZero","inputs":[]},{"type":"error","name":"DataLabelingPlatform__RewardTransferFailed","inputs":[]},{"type":"error","name":"DataLabelingPlatform__RewardsAlreadyDistributed","inputs":[]},{"type":"error","name":"DataLabelingPlatform__TaskDeadlineNotPassed","inputs":[]},{"type":"error","name":"DataLabelingPlatform__TaskExpired","inputs":[]},{"type":"error","name":"DataLabelingPlatform__TaskNotFound","inputs":[]},{"type":"error","name":"DataLabelingPlatform__TaskOwnerCantPaticipate","inputs":[]},{"type":"error","name":"DataLabelingPlatform__TokenNotAccepted","inputs":[]},{"type":"error","name":"DataLabelingPlatform__TokenTransferFromFailed","inputs":[]},{"type":"error","name":"DataLabelingPlatform__WithdrawFailed","inputs":[]},{"type":"error","name":"ReentrancyGuardReentrantCall","inputs":[]}],"bytecode":{"object":"0x60c060405234801562000010575f80fd5b5060405162001c8738038062001c878339810160408190526200003391620000a8565b60015f556001600160a01b03821615806200005557506001600160a01b038116155b15620000745760405163d201ba4160e01b815260040160405180910390fd5b6001600160a01b039182166080521660a052620000de565b80516001600160a01b0381168114620000a3575f80fd5b919050565b5f8060408385031215620000ba575f80fd5b620000c5836200008c565b9150620000d5602084016200008c565b90509250929050565b60805160a051611b5d6200012a5f395f818161034301528181610ff9015261108201525f81816101dc015281816106150152818161066d0152818161097f01526114f00152611b5d5ff3fe60806040526004361061012d575f3560e01c806345fc5f6d116100aa578063796b3e3b1161006e578063796b3e3b146103ec578063a34398a21461040b578063ab3b55e31461043a578063ae169a501461047f578063c1e3bd3e1461049e578063dd49756e146104ca57610172565b806345fc5f6d14610332578063477348921461036557806348a5f18f146103995780634eeb3a2a146103ae57806359974e38146103cd57610172565b80632e1a7d4d116100f15780632e1a7d4d14610295578063308e401e146102b457806331702055146102d357806331a40131146102ff57806336abfc251461031e57610172565b8063059378ea146101ad57806310fe9ae8146101ce57806319514230146102195780631d65e77e146102375780632121c5791461026957610172565b366101725760405162461bcd60e51b815260206004820152601060248201526f115512081b9bdd081858d8d95c1d195960821b60448201526064015b60405180910390fd5b60405162461bcd60e51b815260206004820152601060248201526f115512081b9bdd081858d8d95c1d195960821b6044820152606401610169565b3480156101b8575f80fd5b506101cc6101c736600461161c565b6104e9565b005b3480156101d9575f80fd5b507f00000000000000000000000000000000000000000000000000000000000000005b6040516001600160a01b0390911681526020015b60405180910390f35b348015610224575f80fd5b50612a305b604051908152602001610210565b348015610242575f80fd5b506102566102513660046116d9565b6106d4565b604051610210979695949392919061173d565b348015610274575f80fd5b506102886102833660046117a9565b6107d1565b60405161021091906117c9565b3480156102a0575f80fd5b506101cc6102af3660046116d9565b610919565b3480156102bf575f80fd5b506102886102ce3660046117a9565b610a4f565b3480156102de575f80fd5b506102f26102ed3660046116d9565b610bab565b604051610210919061184e565b34801561030a575f80fd5b506102886103193660046117a9565b610d58565b348015610329575f80fd5b50600354610229565b34801561033d575f80fd5b506101fc7f000000000000000000000000000000000000000000000000000000000000000081565b348015610370575f80fd5b5061022961037f3660046117a9565b6001600160a01b03165f9081526002602052604090205490565b3480156103a4575f80fd5b50610229612a3081565b3480156103b9575f80fd5b506101cc6103c83660046116d9565b610ea7565b3480156103d8575f80fd5b506101cc6103e73660046116d9565b611117565b3480156103f7575f80fd5b506102296104063660046117a9565b611298565b348015610416575f80fd5b5061042a6104253660046118d4565b6112dc565b6040519015158152602001610210565b348015610445575f80fd5b506102296104543660046118d4565b5f8281526001602090815260408083206001600160a01b038516845260060190915290205492915050565b34801561048a575f80fd5b506101cc6104993660046116d9565b61130b565b3480156104a9575f80fd5b506104bd6104b83660046116d9565b61143b565b60405161021091906118fe565b3480156104d5575f80fd5b506101cc6104e43660046116d9565b6114a7565b6104f16115e0565b3361050f57604051630a4552b560e01b815260040160405180910390fd5b61051b612a3042611924565b81101561053b57604051630a55dfd160e31b815260040160405180910390fd5b815f0361055b5760405163cc58f5e960e01b815260040160405180910390fd5b335f9081526002602052604090205482111561058a5760405163de59e33960e01b815260040160405180910390fd5b335f90815260026020526040812080548492906105a8908490611937565b9091555050600380545f91826105bd8361194a565b909155505f81815260016020819052604090912080546001600160a01b0319163317815591925081016105f086826119e7565b506002810184905560038101839055600781018054610100600160a81b0319166101007f00000000000000000000000000000000000000000000000000000000000000006001600160a01b03160217905560405161064f908690611aa3565b60408051918290038220868352602083018690526001600160a01b037f0000000000000000000000000000000000000000000000000000000000000000168383015290519091339185917ff8e0fa0b4d3905e5509711488556554e407693d08f11122dab0999a6ae2a2a5c919081900360600190a450506106cf60015f55565b505050565b5f81815260016020819052604082208054600282015460038301546004840154600785015495850180546060978997889788978897889793966001600160a01b0393841696909592949193919260ff8116926101009091041690869061073990611962565b80601f016020809104026020016040519081016040528092919081815260200182805461076590611962565b80156107b05780601f10610787576101008083540402835291602001916107b0565b820191905f5260205f20905b81548152906001019060200180831161079357829003601f168201915b50505050509550975097509750975097509750975050919395979092949650565b6003546060905f8167ffffffffffffffff8111156107f1576107f1611608565b60405190808252806020026020018201604052801561081a578160200160208202803683370190505b5090505f805b838110156108755761083281876112dc565b15610863578083838151811061084a5761084a611abe565b60209081029190910101528161085f8161194a565b9250505b8061086d8161194a565b915050610820565b505f8167ffffffffffffffff81111561089057610890611608565b6040519080825280602002602001820160405280156108b9578160200160208202803683370190505b5090505f5b8281101561090f578381815181106108d8576108d8611abe565b60200260200101518282815181106108f2576108f2611abe565b6020908102919091010152806109078161194a565b9150506108be565b5095945050505050565b6109216115e0565b805f03610940576040516224f67b60ea1b815260040160405180910390fd5b335f908152600260205260408120805483929061095e908490611937565b909155505060405163a9059cbb60e01b8152336004820152602481018290527f0000000000000000000000000000000000000000000000000000000000000000905f906001600160a01b0383169063a9059cbb906044016020604051808303815f875af11580156109d1573d5f803e3d5ffd5b505050506040513d601f19601f820116820180604052508101906109f59190611ad2565b905080610a1557604051633e89f74160e21b815260040160405180910390fd5b604051839033907f884edad9ce6fa2440d8a54cc123490eb96d2768479d49ff9c7366125a9424364905f90a35050610a4c60015f55565b50565b6003546060905f8167ffffffffffffffff811115610a6f57610a6f611608565b604051908082528060200260200182016040528015610a98578160200160208202803683370190505b5090505f805b83811015610b11575f8181526001602090815260408083206001600160a01b038a168452600681019092529091205415610afe5781848481518110610ae557610ae5611abe565b602090810291909101015282610afa8161194a565b9350505b5080610b098161194a565b915050610a9e565b505f8167ffffffffffffffff811115610b2c57610b2c611608565b604051908082528060200260200182016040528015610b55578160200160208202803683370190505b5090505f5b8281101561090f57838181518110610b7457610b74611abe565b6020026020010151828281518110610b8e57610b8e611abe565b602090810291909101015280610ba38161194a565b915050610b5a565b610bfa6040518060e001604052805f6001600160a01b03168152602001606081526020015f81526020015f8152602001606081526020015f151581526020015f6001600160a01b031681525090565b5f82815260016020818152604092839020835160e0810190945280546001600160a01b03168452918201805492939291830191610c3690611962565b80601f0160208091040260200160405190810160405280929190818152602001828054610c6290611962565b8015610cad5780601f10610c8457610100808354040283529160200191610cad565b820191905f5260205f20905b815481529060010190602001808311610c9057829003601f168201915b50505050508152602001826002015481526020018260030154815260200182600401805480602002602001604051908101604052809291908181526020018280548015610d2157602002820191905f5260205f20905b81546001600160a01b03168152600190910190602001808311610d03575b505050918352505060079092015460ff8116151560208401526001600160a01b036101009091041660409092019190915292915050565b6003546060905f8167ffffffffffffffff811115610d7857610d78611608565b604051908082528060200260200182016040528015610da1578160200160208202803683370190505b5090505f805b83811015610e0d575f818152600160205260409020546001600160a01b03808816911603610dfb5780838381518110610de257610de2611abe565b602090810291909101015281610df78161194a565b9250505b80610e058161194a565b915050610da7565b505f8167ffffffffffffffff811115610e2857610e28611608565b604051908082528060200260200182016040528015610e51578160200160208202803683370190505b5090505f5b8281101561090f57838181518110610e7057610e70611abe565b6020026020010151828281518110610e8a57610e8a611abe565b602090810291909101015280610e9f8161194a565b915050610e56565b610eaf6115e0565b5f81815260016020526040902080546001600160a01b0316610ee457604051631e9d3c6760e31b815260040160405180910390fd5b8060030154421115610f095760405163b84f269760e01b815260040160405180910390fd5b335f90815260058201602052604090205460ff1615610f3b5760405163188949fd60e31b815260040160405180910390fd5b600781015460ff1615610f6157604051630ec4affd60e11b815260040160405180910390fd5b8054336001600160a01b0390911603610f8d57604051638d8f0d6960e01b815260040160405180910390fd5b600481018054600181810183555f928352602080842090920180546001600160a01b03191633908117909155808452600585019092526040909220805460ff1916909217909155610fdd90611298565b60010361106d5760405163de6a594d60e01b81523360048201527f00000000000000000000000000000000000000000000000000000000000000006001600160a01b03169063de6a594d906024016020604051808303815f875af1158015611047573d5f803e3d5ffd5b505050506040513d601f19601f8201168201806040525081019061106b9190611af1565b505b6040516399ed8dc360e01b81523360048201527f00000000000000000000000000000000000000000000000000000000000000006001600160a01b0316906399ed8dc3906024015f604051808303815f87803b1580156110cb575f80fd5b505af11580156110dd573d5f803e3d5ffd5b50506040513392508491507f02dd5752974d935a05c514299e2a3ef7627582ce1cb5d2a4c22d7b8d17888ac7905f90a350610a4c60015f55565b61111f6115e0565b5f8181526001602052604090206003810154421015611151576040516343c5ae3d60e11b815260040160405180910390fd5b600781015460ff161561117757604051630ec4affd60e11b815260040160405180910390fd5b60048101545f036111cd5760078101805460ff1916600117905560028082015482546001600160a01b03165f908152602092909252604082208054919290916111c1908490611924565b9091555061128f915050565b60078101805460ff19166001179055600481015460028201545f906111f3908390611b08565b90505f5b828110156112505781846006015f86600401848154811061121a5761121a611abe565b5f9182526020808320909101546001600160a01b03168352820192909252604001902055806112488161194a565b9150506111f7565b50837f29e98ba00d07f171959c4ddcd2f3020debc7c52cf537a034d7e664340d098c6c8260405161128391815260200190565b60405180910390a25050505b610a4c60015f55565b5f80805b6003548110156112d5576112b081856112dc565b156112c357816112bf8161194a565b9250505b806112cd8161194a565b91505061129c565b5092915050565b5f8281526001602090815260408083206001600160a01b038516845260050190915290205460ff165b92915050565b6113136115e0565b5f81815260016020908152604080832033845260068101909252822054909181900361135257604051631b47877d60e31b815260040160405180910390fd5b335f8181526006840160205260408082208290556007850154905163a9059cbb60e01b815260048101939093526024830184905261010090046001600160a01b031691829063a9059cbb906044016020604051808303815f875af11580156113bc573d5f803e3d5ffd5b505050506040513d601f19601f820116820180604052508101906113e09190611ad2565b90508061140057604051636b5e70c160e01b815260040160405180910390fd5b6040518390339087907ff8a016136ec23af173a9a6d969a9fa0582a5099a74e1b53d91328789f14577f3905f90a450505050610a4c60015f55565b5f8181526001602090815260409182902060040180548351818402810184019094528084526060939283018282801561149b57602002820191905f5260205f20905b81546001600160a01b0316815260019091019060200180831161147d575b50505050509050919050565b6114af6115e0565b805f036114ce576040516224f67b60ea1b815260040160405180910390fd5b6040516323b872dd60e01b8152336004820152306024820152604481018290527f0000000000000000000000000000000000000000000000000000000000000000905f906001600160a01b038316906323b872dd906064016020604051808303815f875af1158015611542573d5f803e3d5ffd5b505050506040513d601f19601f820116820180604052508101906115669190611ad2565b90508061158657604051635993a1b760e01b815260040160405180910390fd5b335f90815260026020526040812080548592906115a4908490611924565b9091555050604051839033907f59062170a285eb80e8c6b8ced60428442a51910635005233fc4ce084a475845e905f90a35050610a4c60015f55565b60025f540361160257604051633ee5aeb560e01b815260040160405180910390fd5b60025f55565b634e487b7160e01b5f52604160045260245ffd5b5f805f6060848603121561162e575f80fd5b833567ffffffffffffffff80821115611645575f80fd5b818601915086601f830112611658575f80fd5b81358181111561166a5761166a611608565b604051601f8201601f19908116603f0116810190838211818310171561169257611692611608565b816040528281528960208487010111156116aa575f80fd5b826020860160208301375f60208483010152809750505050505060208401359150604084013590509250925092565b5f602082840312156116e9575f80fd5b5035919050565b5f5b8381101561170a5781810151838201526020016116f2565b50505f910152565b5f81518084526117298160208601602086016116f0565b601f01601f19169290920160200192915050565b5f60018060a01b03808a16835260e0602084015261175e60e084018a611712565b6040840198909852606083019690965250608081019390935290151560a083015290911660c09091015292915050565b80356001600160a01b03811681146117a4575f80fd5b919050565b5f602082840312156117b9575f80fd5b6117c28261178e565b9392505050565b602080825282518282018190525f9190848201906040850190845b81811015611800578351835292840192918401916001016117e4565b50909695505050505050565b5f8151808452602080850194508084015f5b838110156118435781516001600160a01b03168752958201959082019060010161181e565b509495945050505050565b602081525f60018060a01b03808451166020840152602084015160e0604085015261187d610100850182611712565b905060408501516060850152606085015160808501526080850151601f198583030160a08601526118ae828261180c565b91505060a0850151151560c08501528160c08601511660e0850152809250505092915050565b5f80604083850312156118e5575f80fd5b823591506118f56020840161178e565b90509250929050565b602081525f6117c2602083018461180c565b634e487b7160e01b5f52601160045260245ffd5b8082018082111561130557611305611910565b8181038181111561130557611305611910565b5f6001820161195b5761195b611910565b5060010190565b600181811c9082168061197657607f821691505b60208210810361199457634e487b7160e01b5f52602260045260245ffd5b50919050565b601f8211156106cf575f81815260208120601f850160051c810160208610156119c05750805b601f850160051c820191505b818110156119df578281556001016119cc565b505050505050565b815167ffffffffffffffff811115611a0157611a01611608565b611a1581611a0f8454611962565b8461199a565b602080601f831160018114611a48575f8415611a315750858301515b5f19600386901b1c1916600185901b1785556119df565b5f85815260208120601f198616915b82811015611a7657888601518255948401946001909101908401611a57565b5085821015611a9357878501515f19600388901b60f8161c191681555b5050505050600190811b01905550565b5f8251611ab48184602087016116f0565b9190910192915050565b634e487b7160e01b5f52603260045260245ffd5b5f60208284031215611ae2575f80fd5b815180151581146117c2575f80fd5b5f60208284031215611b01575f80fd5b5051919050565b5f82611b2257634e487b7160e01b5f52601260045260245ffd5b50049056fea264697066735822122022abb82a4620ad341741e4704500c702d683389e09718e290275065a65f41dc564736f6c63430008140033","linkReferences":{}},"methodIdentifiers":{"TASK_DEADLINE_BUFFER()":"48a5f18f","claimReward(uint256)":"ae169a50","createTask(string,uint256,uint256)":"059378ea","depositTokens(uint256)":"dd49756e","distributeRewards(uint256)":"59974e38","getClaimableReward(uint256,address)":"ab3b55e3","getClaimableRewards(address)":"308e401e","getParticipantTaskCount(address)":"796b3e3b","getParticipants(uint256)":"c1e3bd3e","getTask(uint256)":"1d65e77e","getTaskDeadlineBuffer()":"19514230","getTaskIdCounter()":"36abfc25","getTaskIdToTask(uint256)":"31702055","getTasksByCreator(address)":"31a40131","getTasksByParticipant(address)":"2121c579","getTokenAddress()":"10fe9ae8","getUserBalance(address)":"47734892","hasParticipated(uint256,address)":"a34398a2","i_performanceNft()":"45fc5f6d","performTask(uint256)":"4eeb3a2a","withdraw(uint256)":"2e1a7d4d"},"id":48}