{"abi":[{"type":"constructor","inputs":[{"name":"_tokenAddress","type":"address","internalType":"address"}],"stateMutability":"nonpayable"},{"type":"fallback","stateMutability":"payable"},{"type":"receive","stateMutability":"payable"},{"type":"function","name":"TASK_DEADLINE_BUFFER","inputs":[],"outputs":[{"name":"","type":"uint256","internalType":"uint256"}],"stateMutability":"view"},{"type":"function","name":"claimReward","inputs":[{"name":"taskId","type":"uint256","internalType":"uint256"}],"outputs":[],"stateMutability":"nonpayable"},{"type":"function","name":"createTask","inputs":[{"name":"autoDriveCid","type":"string","internalType":"string"},{"name":"totalReward","type":"uint256","internalType":"uint256"},{"name":"deadline","type":"uint256","internalType":"uint256"}],"outputs":[],"stateMutability":"nonpayable"},{"type":"function","name":"depositTokens","inputs":[{"name":"amount","type":"uint256","internalType":"uint256"}],"outputs":[],"stateMutability":"nonpayable"},{"type":"function","name":"distributeRewards","inputs":[{"name":"taskId","type":"uint256","internalType":"uint256"}],"outputs":[],"stateMutability":"nonpayable"},{"type":"function","name":"getClaimableReward","inputs":[{"name":"taskId","type":"uint256","internalType":"uint256"},{"name":"user","type":"address","internalType":"address"}],"outputs":[{"name":"","type":"uint256","internalType":"uint256"}],"stateMutability":"view"},{"type":"function","name":"getParticipants","inputs":[{"name":"taskId","type":"uint256","internalType":"uint256"}],"outputs":[{"name":"","type":"address[]","internalType":"address[]"}],"stateMutability":"view"},{"type":"function","name":"getTask","inputs":[{"name":"taskId","type":"uint256","internalType":"uint256"}],"outputs":[{"name":"creator","type":"address","internalType":"address"},{"name":"autoDriveCid","type":"string","internalType":"string"},{"name":"totalReward","type":"uint256","internalType":"uint256"},{"name":"deadline","type":"uint256","internalType":"uint256"},{"name":"participantCount","type":"uint256","internalType":"uint256"},{"name":"rewardsDistributed","type":"bool","internalType":"bool"},{"name":"tokenAddress","type":"address","internalType":"address"}],"stateMutability":"view"},{"type":"function","name":"getTaskDeadlineBuffer","inputs":[],"outputs":[{"name":"","type":"uint256","internalType":"uint256"}],"stateMutability":"pure"},{"type":"function","name":"getTaskIdCounter","inputs":[],"outputs":[{"name":"","type":"uint256","internalType":"uint256"}],"stateMutability":"view"},{"type":"function","name":"getTaskIdToTask","inputs":[{"name":"taskId","type":"uint256","internalType":"uint256"}],"outputs":[{"name":"","type":"tuple","internalType":"struct DataLabelingPlatform.TaskResponse","components":[{"name":"creator","type":"address","internalType":"address"},{"name":"autoDriveCid","type":"string","internalType":"string"},{"name":"totalReward","type":"uint256","internalType":"uint256"},{"name":"deadline","type":"uint256","internalType":"uint256"},{"name":"participants","type":"address[]","internalType":"address[]"},{"name":"rewardsDistributed","type":"bool","internalType":"bool"},{"name":"tokenAddress","type":"address","internalType":"address"}]}],"stateMutability":"view"},{"type":"function","name":"getTasksByCreator","inputs":[{"name":"creator","type":"address","internalType":"address"}],"outputs":[{"name":"","type":"uint256[]","internalType":"uint256[]"}],"stateMutability":"view"},{"type":"function","name":"getTasksByParticipant","inputs":[{"name":"participant","type":"address","internalType":"address"}],"outputs":[{"name":"","type":"uint256[]","internalType":"uint256[]"}],"stateMutability":"view"},{"type":"function","name":"getTokenAddress","inputs":[],"outputs":[{"name":"","type":"address","internalType":"address"}],"stateMutability":"view"},{"type":"function","name":"getUserBalance","inputs":[{"name":"user","type":"address","internalType":"address"}],"outputs":[{"name":"","type":"uint256","internalType":"uint256"}],"stateMutability":"view"},{"type":"function","name":"hasParticipated","inputs":[{"name":"taskId","type":"uint256","internalType":"uint256"},{"name":"user","type":"address","internalType":"address"}],"outputs":[{"name":"","type":"bool","internalType":"bool"}],"stateMutability":"view"},{"type":"function","name":"performTask","inputs":[{"name":"taskId","type":"uint256","internalType":"uint256"}],"outputs":[],"stateMutability":"nonpayable"},{"type":"function","name":"withdraw","inputs":[{"name":"_amount","type":"uint256","internalType":"uint256"}],"outputs":[],"stateMutability":"nonpayable"},{"type":"event","name":"RewardClaim","inputs":[{"name":"taskId","type":"uint256","indexed":true,"internalType":"uint256"},{"name":"user","type":"address","indexed":true,"internalType":"address"},{"name":"amount","type":"uint256","indexed":true,"internalType":"uint256"}],"anonymous":false},{"type":"event","name":"RewardsDistributed","inputs":[{"name":"taskId","type":"uint256","indexed":true,"internalType":"uint256"},{"name":"rewardPerParticipant","type":"uint256","indexed":false,"internalType":"uint256"}],"anonymous":false},{"type":"event","name":"TaskCreated","inputs":[{"name":"taskId","type":"uint256","indexed":true,"internalType":"uint256"},{"name":"creator","type":"address","indexed":true,"internalType":"address"},{"name":"autoDriveCid","type":"string","indexed":true,"internalType":"string"},{"name":"totalReward","type":"uint256","indexed":false,"internalType":"uint256"},{"name":"deadline","type":"uint256","indexed":false,"internalType":"uint256"},{"name":"tokenAddress","type":"address","indexed":false,"internalType":"address"}],"anonymous":false},{"type":"event","name":"TaskPerformed","inputs":[{"name":"taskId","type":"uint256","indexed":true,"internalType":"uint256"},{"name":"participant","type":"address","indexed":true,"internalType":"address"}],"anonymous":false},{"type":"event","name":"TokensDeposited","inputs":[{"name":"user","type":"address","indexed":true,"internalType":"address"},{"name":"amount","type":"uint256","indexed":true,"internalType":"uint256"}],"anonymous":false},{"type":"event","name":"TokensReceived","inputs":[{"name":"token","type":"address","indexed":true,"internalType":"address"},{"name":"from","type":"address","indexed":true,"internalType":"address"},{"name":"amount","type":"uint256","indexed":false,"internalType":"uint256"}],"anonymous":false},{"type":"event","name":"Withdraw","inputs":[{"name":"sender","type":"address","indexed":true,"internalType":"address"},{"name":"amount","type":"uint256","indexed":true,"internalType":"uint256"}],"anonymous":false},{"type":"error","name":"DataLabelingPlatform__AddressZero","inputs":[]},{"type":"error","name":"DataLabelingPlatform__AlreadyParticipated","inputs":[]},{"type":"error","name":"DataLabelingPlatform__AmountMustBeGreaterThanZero","inputs":[]},{"type":"error","name":"DataLabelingPlatform__InsufficientBalance","inputs":[]},{"type":"error","name":"DataLabelingPlatform__InvalidTokenAddress","inputs":[]},{"type":"error","name":"DataLabelingPlatform__MinimumDeadlineIs3Hours","inputs":[]},{"type":"error","name":"DataLabelingPlatform__NoParticipants","inputs":[]},{"type":"error","name":"DataLabelingPlatform__NoRewardToClaim","inputs":[]},{"type":"error","name":"DataLabelingPlatform__RewardMustBeGreaterThanZero","inputs":[]},{"type":"error","name":"DataLabelingPlatform__RewardTransferFailed","inputs":[]},{"type":"error","name":"DataLabelingPlatform__RewardsAlreadyDistributed","inputs":[]},{"type":"error","name":"DataLabelingPlatform__TaskDeadlineNotPassed","inputs":[]},{"type":"error","name":"DataLabelingPlatform__TaskExpired","inputs":[]},{"type":"error","name":"DataLabelingPlatform__TaskNotFound","inputs":[]},{"type":"error","name":"DataLabelingPlatform__TaskOwnerCantPaticipate","inputs":[]},{"type":"error","name":"DataLabelingPlatform__TokenNotAccepted","inputs":[]},{"type":"error","name":"DataLabelingPlatform__TokenTransferFromFailed","inputs":[]},{"type":"error","name":"DataLabelingPlatform__WithdrawFailed","inputs":[]},{"type":"error","name":"ReentrancyGuardReentrantCall","inputs":[]}],"bytecode":{"object":"0x60a060405234801561000f575f5ffd5b5060405161188438038061188483398101604081905261002e9161006a565b60015f556001600160a01b0381166100595760405163d201ba4160e01b815260040160405180910390fd5b6001600160a01b0316608052610097565b5f6020828403121561007a575f5ffd5b81516001600160a01b0381168114610090575f5ffd5b9392505050565b6080516117b96100cb5f395f81816101c601528181610580015281816105d8015281816108d6015261117901526117b95ff3fe60806040526004361061010c575f3560e01c80634773489211610094578063a34398a211610063578063a34398a214610376578063ab3b55e3146103a5578063ae169a50146103ea578063c1e3bd3e14610409578063dd49756e1461043557610151565b806347734892146102ef57806348a5f18f146103235780634eeb3a2a1461033857806359974e381461035757610151565b80632121c579116100db5780632121c579146102455780632e1a7d4d14610271578063317020551461029057806331a40131146102bc57806336abfc25146102db57610151565b8063059378ea1461018c57806310fe9ae8146101ad57806319514230146101f55780631d65e77e1461021357610151565b366101515760405162461bcd60e51b815260206004820152601060248201526f115512081b9bdd081858d8d95c1d195960821b60448201526064015b60405180910390fd5b60405162461bcd60e51b815260206004820152601060248201526f115512081b9bdd081858d8d95c1d195960821b6044820152606401610148565b348015610197575f5ffd5b506101ab6101a63660046112a5565b610454565b005b3480156101b8575f5ffd5b506040516001600160a01b037f00000000000000000000000000000000000000000000000000000000000000001681526020015b60405180910390f35b348015610200575f5ffd5b50612a305b6040519081526020016101ec565b34801561021e575f5ffd5b5061023261022d366004611365565b61063f565b6040516101ec97969594939291906113aa565b348015610250575f5ffd5b5061026461025f36600461141d565b61073c565b6040516101ec919061143d565b34801561027c575f5ffd5b506101ab61028b366004611365565b610870565b34801561029b575f5ffd5b506102af6102aa366004611365565b6109a6565b6040516101ec91906114c2565b3480156102c7575f5ffd5b506102646102d636600461141d565b610b53565b3480156102e6575f5ffd5b50600354610205565b3480156102fa575f5ffd5b5061020561030936600461141d565b6001600160a01b03165f9081526002602052604090205490565b34801561032e575f5ffd5b50610205612a3081565b348015610343575f5ffd5b506101ab610352366004611365565b610c8e565b348015610362575f5ffd5b506101ab610371366004611365565b610dee565b348015610381575f5ffd5b5061039561039036600461154f565b610f65565b60405190151581526020016101ec565b3480156103b0575f5ffd5b506102056103bf36600461154f565b5f8281526001602090815260408083206001600160a01b038516845260060190915290205492915050565b3480156103f5575f5ffd5b506101ab610404366004611365565b610f94565b348015610414575f5ffd5b50610428610423366004611365565b6110c4565b6040516101ec9190611579565b348015610440575f5ffd5b506101ab61044f366004611365565b611130565b61045c611269565b3361047a57604051630a4552b560e01b815260040160405180910390fd5b610486612a304261159f565b8110156104a657604051630a55dfd160e31b815260040160405180910390fd5b815f036104c65760405163cc58f5e960e01b815260040160405180910390fd5b335f908152600260205260409020548211156104f55760405163de59e33960e01b815260040160405180910390fd5b335f90815260026020526040812080548492906105139084906115b2565b9091555050600380545f9182610528836115c5565b909155505f81815260016020819052604090912080546001600160a01b03191633178155919250810161055b8682611660565b506002810184905560038101839055600781018054610100600160a81b0319166101007f00000000000000000000000000000000000000000000000000000000000000006001600160a01b0316021790556040516105ba90869061171b565b60408051918290038220868352602083018690526001600160a01b037f0000000000000000000000000000000000000000000000000000000000000000168383015290519091339185917ff8e0fa0b4d3905e5509711488556554e407693d08f11122dab0999a6ae2a2a5c919081900360600190a4505061063a60015f55565b505050565b5f81815260016020819052604082208054600282015460038301546004840154600785015495850180546060978997889788978897889793966001600160a01b0393841696909592949193919260ff811692610100909104169086906106a4906115dd565b80601f01602080910402602001604051908101604052809291908181526020018280546106d0906115dd565b801561071b5780601f106106f25761010080835404028352916020019161071b565b820191905f5260205f20905b8154815290600101906020018083116106fe57829003601f168201915b50505050509550975097509750975097509750975050919395979092949650565b6003546060905f8167ffffffffffffffff81111561075c5761075c611291565b604051908082528060200260200182016040528015610785578160200160208202803683370190505b5090505f805b838110156107d65761079d8187610f65565b156107ce57808383815181106107b5576107b5611731565b6020908102919091010152816107ca816115c5565b9250505b60010161078b565b505f8167ffffffffffffffff8111156107f1576107f1611291565b60405190808252806020026020018201604052801561081a578160200160208202803683370190505b5090505f5b828110156108665783818151811061083957610839611731565b602002602001015182828151811061085357610853611731565b602090810291909101015260010161081f565b5095945050505050565b610878611269565b805f03610897576040516224f67b60ea1b815260040160405180910390fd5b335f90815260026020526040812080548392906108b59084906115b2565b909155505060405163a9059cbb60e01b8152336004820152602481018290527f0000000000000000000000000000000000000000000000000000000000000000905f906001600160a01b0383169063a9059cbb906044016020604051808303815f875af1158015610928573d5f5f3e3d5ffd5b505050506040513d601f19601f8201168201806040525081019061094c9190611745565b90508061096c57604051633e89f74160e21b815260040160405180910390fd5b604051839033907f884edad9ce6fa2440d8a54cc123490eb96d2768479d49ff9c7366125a9424364905f90a350506109a360015f55565b50565b6109f56040518060e001604052805f6001600160a01b03168152602001606081526020015f81526020015f8152602001606081526020015f151581526020015f6001600160a01b031681525090565b5f82815260016020818152604092839020835160e0810190945280546001600160a01b03168452918201805492939291830191610a31906115dd565b80601f0160208091040260200160405190810160405280929190818152602001828054610a5d906115dd565b8015610aa85780601f10610a7f57610100808354040283529160200191610aa8565b820191905f5260205f20905b815481529060010190602001808311610a8b57829003601f168201915b50505050508152602001826002015481526020018260030154815260200182600401805480602002602001604051908101604052809291908181526020018280548015610b1c57602002820191905f5260205f20905b81546001600160a01b03168152600190910190602001808311610afe575b505050918352505060079092015460ff8116151560208401526001600160a01b036101009091041660409092019190915292915050565b6003546060905f8167ffffffffffffffff811115610b7357610b73611291565b604051908082528060200260200182016040528015610b9c578160200160208202803683370190505b5090505f805b83811015610bfe575f818152600160205260409020546001600160a01b03808816911603610bf65780838381518110610bdd57610bdd611731565b602090810291909101015281610bf2816115c5565b9250505b600101610ba2565b505f8167ffffffffffffffff811115610c1957610c19611291565b604051908082528060200260200182016040528015610c42578160200160208202803683370190505b5090505f5b8281101561086657838181518110610c6157610c61611731565b6020026020010151828281518110610c7b57610c7b611731565b6020908102919091010152600101610c47565b610c96611269565b5f81815260016020526040902080546001600160a01b0316610ccb57604051631e9d3c6760e31b815260040160405180910390fd5b8060030154421115610cf05760405163b84f269760e01b815260040160405180910390fd5b335f90815260058201602052604090205460ff1615610d225760405163188949fd60e31b815260040160405180910390fd5b600781015460ff1615610d4857604051630ec4affd60e11b815260040160405180910390fd5b8054336001600160a01b0390911603610d7457604051638d8f0d6960e01b815260040160405180910390fd5b600481018054600181810183555f928352602080842090920180546001600160a01b03191633908117909155808452600585019092526040808420805460ff191690921790915551909184917f02dd5752974d935a05c514299e2a3ef7627582ce1cb5d2a4c22d7b8d17888ac79190a3506109a360015f55565b610df6611269565b5f8181526001602052604090206003810154421015610e28576040516343c5ae3d60e11b815260040160405180910390fd5b600781015460ff1615610e4e57604051630ec4affd60e11b815260040160405180910390fd5b60048101545f03610ea45760078101805460ff1916600117905560028082015482546001600160a01b03165f90815260209290925260408220805491929091610e9890849061159f565b90915550610f5c915050565b60078101805460ff19166001179055600481015460028201545f90610eca908390611764565b90505f5b82811015610f1d5781846006015f866004018481548110610ef157610ef1611731565b5f9182526020808320909101546001600160a01b03168352820192909252604001902055600101610ece565b50837f29e98ba00d07f171959c4ddcd2f3020debc7c52cf537a034d7e664340d098c6c82604051610f5091815260200190565b60405180910390a25050505b6109a360015f55565b5f8281526001602090815260408083206001600160a01b038516845260050190915290205460ff165b92915050565b610f9c611269565b5f818152600160209081526040808320338452600681019092528220549091819003610fdb57604051631b47877d60e31b815260040160405180910390fd5b335f8181526006840160205260408082208290556007850154905163a9059cbb60e01b815260048101939093526024830184905261010090046001600160a01b031691829063a9059cbb906044016020604051808303815f875af1158015611045573d5f5f3e3d5ffd5b505050506040513d601f19601f820116820180604052508101906110699190611745565b90508061108957604051636b5e70c160e01b815260040160405180910390fd5b6040518390339087907ff8a016136ec23af173a9a6d969a9fa0582a5099a74e1b53d91328789f14577f3905f90a4505050506109a360015f55565b5f8181526001602090815260409182902060040180548351818402810184019094528084526060939283018282801561112457602002820191905f5260205f20905b81546001600160a01b03168152600190910190602001808311611106575b50505050509050919050565b611138611269565b805f03611157576040516224f67b60ea1b815260040160405180910390fd5b6040516323b872dd60e01b8152336004820152306024820152604481018290527f0000000000000000000000000000000000000000000000000000000000000000905f906001600160a01b038316906323b872dd906064016020604051808303815f875af11580156111cb573d5f5f3e3d5ffd5b505050506040513d601f19601f820116820180604052508101906111ef9190611745565b90508061120f57604051635993a1b760e01b815260040160405180910390fd5b335f908152600260205260408120805485929061122d90849061159f565b9091555050604051839033907f59062170a285eb80e8c6b8ced60428442a51910635005233fc4ce084a475845e905f90a350506109a360015f55565b60025f540361128b57604051633ee5aeb560e01b815260040160405180910390fd5b60025f55565b634e487b7160e01b5f52604160045260245ffd5b5f5f5f606084860312156112b7575f5ffd5b833567ffffffffffffffff8111156112cd575f5ffd5b8401601f810186136112dd575f5ffd5b803567ffffffffffffffff8111156112f7576112f7611291565b604051601f8201601f19908116603f0116810167ffffffffffffffff8111828210171561132657611326611291565b60405281815282820160200188101561133d575f5ffd5b816020840160208301375f602092820183015297908601359650604090950135949350505050565b5f60208284031215611375575f5ffd5b5035919050565b5f81518084528060208401602086015e5f602082860101526020601f19601f83011685010191505092915050565b6001600160a01b038816815260e0602082018190525f906113cd9083018961137c565b60408301979097525060608101949094526080840192909252151560a08301526001600160a01b031660c09091015292915050565b80356001600160a01b0381168114611418575f5ffd5b919050565b5f6020828403121561142d575f5ffd5b61143682611402565b9392505050565b602080825282518282018190525f918401906040840190835b81811015611474578351835260209384019390920191600101611456565b509095945050505050565b5f8151808452602084019350602083015f5b828110156114b85781516001600160a01b0316865260209586019590910190600101611491565b5093949350505050565b602080825282516001600160a01b03168282015282015160e060408301525f906114f061010084018261137c565b905060408401516060840152606084015160808401526080840151601f198483030160a0850152611521828261147f565b60a0860151151560c086810191909152909501516001600160a01b031660e090940193909352509192915050565b5f5f60408385031215611560575f5ffd5b8235915061157060208401611402565b90509250929050565b602081525f611436602083018461147f565b634e487b7160e01b5f52601160045260245ffd5b80820180821115610f8e57610f8e61158b565b81810381811115610f8e57610f8e61158b565b5f600182016115d6576115d661158b565b5060010190565b600181811c908216806115f157607f821691505b60208210810361160f57634e487b7160e01b5f52602260045260245ffd5b50919050565b601f82111561063a57805f5260205f20601f840160051c8101602085101561163a5750805b601f840160051c820191505b81811015611659575f8155600101611646565b5050505050565b815167ffffffffffffffff81111561167a5761167a611291565b61168e8161168884546115dd565b84611615565b6020601f8211600181146116c0575f83156116a95750848201515b5f19600385901b1c1916600184901b178455611659565b5f84815260208120601f198516915b828110156116ef57878501518255602094850194600190920191016116cf565b508482101561170c57868401515f19600387901b60f8161c191681555b50505050600190811b01905550565b5f82518060208501845e5f920191825250919050565b634e487b7160e01b5f52603260045260245ffd5b5f60208284031215611755575f5ffd5b81518015158114611436575f5ffd5b5f8261177e57634e487b7160e01b5f52601260045260245ffd5b50049056fea2646970667358221220f58837fbfba5bbdb22184e5d4b2648d86c1bccf81e6e5d38ca094ca3d1f1553764736f6c634300081c0033","linkReferences":{}},"methodIdentifiers":{"TASK_DEADLINE_BUFFER()":"48a5f18f","claimReward(uint256)":"ae169a50","createTask(string,uint256,uint256)":"059378ea","depositTokens(uint256)":"dd49756e","distributeRewards(uint256)":"59974e38","getClaimableReward(uint256,address)":"ab3b55e3","getParticipants(uint256)":"c1e3bd3e","getTask(uint256)":"1d65e77e","getTaskDeadlineBuffer()":"19514230","getTaskIdCounter()":"36abfc25","getTaskIdToTask(uint256)":"31702055","getTasksByCreator(address)":"31a40131","getTasksByParticipant(address)":"2121c579","getTokenAddress()":"10fe9ae8","getUserBalance(address)":"47734892","hasParticipated(uint256,address)":"a34398a2","performTask(uint256)":"4eeb3a2a","withdraw(uint256)":"2e1a7d4d"},"id":33}