{"abi":[{"type":"constructor","inputs":[{"name":"_baseEndpoint","type":"string","internalType":"string"}],"stateMutability":"nonpayable"},{"type":"function","name":"LEVEL_1_THRESHOLD","inputs":[],"outputs":[{"name":"","type":"uint256","internalType":"uint256"}],"stateMutability":"view"},{"type":"function","name":"LEVEL_2_THRESHOLD","inputs":[],"outputs":[{"name":"","type":"uint256","internalType":"uint256"}],"stateMutability":"view"},{"type":"function","name":"LEVEL_3_THRESHOLD","inputs":[],"outputs":[{"name":"","type":"uint256","internalType":"uint256"}],"stateMutability":"view"},{"type":"function","name":"LEVEL_4_THRESHOLD","inputs":[],"outputs":[{"name":"","type":"uint256","internalType":"uint256"}],"stateMutability":"view"},{"type":"function","name":"approve","inputs":[{"name":"to","type":"address","internalType":"address"},{"name":"tokenId","type":"uint256","internalType":"uint256"}],"outputs":[],"stateMutability":"nonpayable"},{"type":"function","name":"balanceOf","inputs":[{"name":"owner","type":"address","internalType":"address"}],"outputs":[{"name":"","type":"uint256","internalType":"uint256"}],"stateMutability":"view"},{"type":"function","name":"baseEndpoint","inputs":[],"outputs":[{"name":"","type":"string","internalType":"string"}],"stateMutability":"view"},{"type":"function","name":"dataLabelingPlatform","inputs":[],"outputs":[{"name":"","type":"address","internalType":"address"}],"stateMutability":"view"},{"type":"function","name":"getApproved","inputs":[{"name":"tokenId","type":"uint256","internalType":"uint256"}],"outputs":[{"name":"","type":"address","internalType":"address"}],"stateMutability":"view"},{"type":"function","name":"isApprovedForAll","inputs":[{"name":"owner","type":"address","internalType":"address"},{"name":"operator","type":"address","internalType":"address"}],"outputs":[{"name":"","type":"bool","internalType":"bool"}],"stateMutability":"view"},{"type":"function","name":"mintInitialNFT","inputs":[{"name":"user","type":"address","internalType":"address"}],"outputs":[{"name":"","type":"uint256","internalType":"uint256"}],"stateMutability":"nonpayable"},{"type":"function","name":"name","inputs":[],"outputs":[{"name":"","type":"string","internalType":"string"}],"stateMutability":"view"},{"type":"function","name":"nftMetadata","inputs":[{"name":"","type":"uint256","internalType":"uint256"}],"outputs":[{"name":"level","type":"uint8","internalType":"uint8"},{"name":"lastEvolution","type":"uint256","internalType":"uint256"},{"name":"baseURI","type":"string","internalType":"string"}],"stateMutability":"view"},{"type":"function","name":"owner","inputs":[],"outputs":[{"name":"","type":"address","internalType":"address"}],"stateMutability":"view"},{"type":"function","name":"ownerOf","inputs":[{"name":"tokenId","type":"uint256","internalType":"uint256"}],"outputs":[{"name":"","type":"address","internalType":"address"}],"stateMutability":"view"},{"type":"function","name":"renounceOwnership","inputs":[],"outputs":[],"stateMutability":"nonpayable"},{"type":"function","name":"safeTransferFrom","inputs":[{"name":"from","type":"address","internalType":"address"},{"name":"to","type":"address","internalType":"address"},{"name":"tokenId","type":"uint256","internalType":"uint256"}],"outputs":[],"stateMutability":"nonpayable"},{"type":"function","name":"safeTransferFrom","inputs":[{"name":"from","type":"address","internalType":"address"},{"name":"to","type":"address","internalType":"address"},{"name":"tokenId","type":"uint256","internalType":"uint256"},{"name":"data","type":"bytes","internalType":"bytes"}],"outputs":[],"stateMutability":"nonpayable"},{"type":"function","name":"setApprovalForAll","inputs":[{"name":"operator","type":"address","internalType":"address"},{"name":"approved","type":"bool","internalType":"bool"}],"outputs":[],"stateMutability":"nonpayable"},{"type":"function","name":"setBaseEndpoint","inputs":[{"name":"_newEndpoint","type":"string","internalType":"string"}],"outputs":[],"stateMutability":"nonpayable"},{"type":"function","name":"setDataLabelingPlatform","inputs":[{"name":"_dataLabelingPlatform","type":"address","internalType":"address"}],"outputs":[],"stateMutability":"nonpayable"},{"type":"function","name":"supportsInterface","inputs":[{"name":"interfaceId","type":"bytes4","internalType":"bytes4"}],"outputs":[{"name":"","type":"bool","internalType":"bool"}],"stateMutability":"view"},{"type":"function","name":"symbol","inputs":[],"outputs":[{"name":"","type":"string","internalType":"string"}],"stateMutability":"view"},{"type":"function","name":"tokenByIndex","inputs":[{"name":"index","type":"uint256","internalType":"uint256"}],"outputs":[{"name":"","type":"uint256","internalType":"uint256"}],"stateMutability":"view"},{"type":"function","name":"tokenOfOwnerByIndex","inputs":[{"name":"owner","type":"address","internalType":"address"},{"name":"index","type":"uint256","internalType":"uint256"}],"outputs":[{"name":"","type":"uint256","internalType":"uint256"}],"stateMutability":"view"},{"type":"function","name":"tokenURI","inputs":[{"name":"tokenId","type":"uint256","internalType":"uint256"}],"outputs":[{"name":"","type":"string","internalType":"string"}],"stateMutability":"view"},{"type":"function","name":"totalSupply","inputs":[],"outputs":[{"name":"","type":"uint256","internalType":"uint256"}],"stateMutability":"view"},{"type":"function","name":"transferFrom","inputs":[{"name":"from","type":"address","internalType":"address"},{"name":"to","type":"address","internalType":"address"},{"name":"tokenId","type":"uint256","internalType":"uint256"}],"outputs":[],"stateMutability":"nonpayable"},{"type":"function","name":"transferOwnership","inputs":[{"name":"newOwner","type":"address","internalType":"address"}],"outputs":[],"stateMutability":"nonpayable"},{"type":"function","name":"updatePerformance","inputs":[{"name":"user","type":"address","internalType":"address"}],"outputs":[],"stateMutability":"nonpayable"},{"type":"function","name":"userPerformance","inputs":[{"name":"","type":"address","internalType":"address"}],"outputs":[{"name":"tasksCompleted","type":"uint256","internalType":"uint256"},{"name":"lastUpdateBlock","type":"uint256","internalType":"uint256"},{"name":"currentLevel","type":"uint8","internalType":"uint8"}],"stateMutability":"view"},{"type":"event","name":"Approval","inputs":[{"name":"owner","type":"address","indexed":true,"internalType":"address"},{"name":"approved","type":"address","indexed":true,"internalType":"address"},{"name":"tokenId","type":"uint256","indexed":true,"internalType":"uint256"}],"anonymous":false},{"type":"event","name":"ApprovalForAll","inputs":[{"name":"owner","type":"address","indexed":true,"internalType":"address"},{"name":"operator","type":"address","indexed":true,"internalType":"address"},{"name":"approved","type":"bool","indexed":false,"internalType":"bool"}],"anonymous":false},{"type":"event","name":"NFTEvolved","inputs":[{"name":"tokenId","type":"uint256","indexed":true,"internalType":"uint256"},{"name":"newLevel","type":"uint8","indexed":false,"internalType":"uint8"}],"anonymous":false},{"type":"event","name":"NFTMinted","inputs":[{"name":"user","type":"address","indexed":true,"internalType":"address"},{"name":"tokenId","type":"uint256","indexed":true,"internalType":"uint256"}],"anonymous":false},{"type":"event","name":"OwnershipTransferred","inputs":[{"name":"previousOwner","type":"address","indexed":true,"internalType":"address"},{"name":"newOwner","type":"address","indexed":true,"internalType":"address"}],"anonymous":false},{"type":"event","name":"PerformanceUpdated","inputs":[{"name":"user","type":"address","indexed":true,"internalType":"address"},{"name":"tasksCompleted","type":"uint256","indexed":false,"internalType":"uint256"}],"anonymous":false},{"type":"event","name":"Transfer","inputs":[{"name":"from","type":"address","indexed":true,"internalType":"address"},{"name":"to","type":"address","indexed":true,"internalType":"address"},{"name":"tokenId","type":"uint256","indexed":true,"internalType":"uint256"}],"anonymous":false},{"type":"error","name":"ERC721EnumerableForbiddenBatchMint","inputs":[]},{"type":"error","name":"ERC721IncorrectOwner","inputs":[{"name":"sender","type":"address","internalType":"address"},{"name":"tokenId","type":"uint256","internalType":"uint256"},{"name":"owner","type":"address","internalType":"address"}]},{"type":"error","name":"ERC721InsufficientApproval","inputs":[{"name":"operator","type":"address","internalType":"address"},{"name":"tokenId","type":"uint256","internalType":"uint256"}]},{"type":"error","name":"ERC721InvalidApprover","inputs":[{"name":"approver","type":"address","internalType":"address"}]},{"type":"error","name":"ERC721InvalidOperator","inputs":[{"name":"operator","type":"address","internalType":"address"}]},{"type":"error","name":"ERC721InvalidOwner","inputs":[{"name":"owner","type":"address","internalType":"address"}]},{"type":"error","name":"ERC721InvalidReceiver","inputs":[{"name":"receiver","type":"address","internalType":"address"}]},{"type":"error","name":"ERC721InvalidSender","inputs":[{"name":"sender","type":"address","internalType":"address"}]},{"type":"error","name":"ERC721NonexistentToken","inputs":[{"name":"tokenId","type":"uint256","internalType":"uint256"}]},{"type":"error","name":"ERC721OutOfBoundsIndex","inputs":[{"name":"owner","type":"address","internalType":"address"},{"name":"index","type":"uint256","internalType":"uint256"}]},{"type":"error","name":"OwnableInvalidOwner","inputs":[{"name":"owner","type":"address","internalType":"address"}]},{"type":"error","name":"OwnableUnauthorizedAccount","inputs":[{"name":"account","type":"address","internalType":"address"}]},{"type":"error","name":"ReentrancyGuardReentrantCall","inputs":[]}],"bytecode":{"object":"0x608060405234801562000010575f80fd5b50604051620024b9380380620024b9833981016040819052620000339162000155565b336040518060400160405280600f81526020016e14195c999bdc9b585b98d948139195608a1b815250604051806040016040528060048152602001632822a92360e11b815250815f9081620000899190620002af565b506001620000988282620002af565b50506001600a55506001600160a01b038116620000ce57604051631e4fbdf760e01b81525f600482015260240160405180910390fd5b620000d981620000f0565b506010620000e88282620002af565b505062000377565b600b80546001600160a01b038381166001600160a01b0319831681179093556040519116919082907f8be0079c531659141344cd1fd0a4f28419497f9722a3daafe3b4186f6b6457e0905f90a35050565b634e487b7160e01b5f52604160045260245ffd5b5f602080838503121562000167575f80fd5b82516001600160401b03808211156200017e575f80fd5b818501915085601f83011262000192575f80fd5b815181811115620001a757620001a762000141565b604051601f8201601f19908116603f01168101908382118183101715620001d257620001d262000141565b816040528281528886848701011115620001ea575f80fd5b5f93505b828410156200020d5784840186015181850187015292850192620001ee565b5f86848301015280965050505050505092915050565b600181811c908216806200023857607f821691505b6020821081036200025757634e487b7160e01b5f52602260045260245ffd5b50919050565b601f821115620002aa575f81815260208120601f850160051c81016020861015620002855750805b601f850160051c820191505b81811015620002a65782815560010162000291565b5050505b505050565b81516001600160401b03811115620002cb57620002cb62000141565b620002e381620002dc845462000223565b846200025d565b602080601f83116001811462000319575f8415620003015750858301515b5f19600386901b1c1916600185901b178555620002a6565b5f85815260208120601f198616915b82811015620003495788860151825594840194600190910190840162000328565b50858210156200036757878501515f19600388901b60f8161c191681555b5050505050600190811b01905550565b61213480620003855f395ff3fe608060405234801561000f575f80fd5b50600436106101dc575f3560e01c806362504a8611610109578063a22cb4651161009e578063de6a594d1161006e578063de6a594d1461040d578063e985e9c514610420578063f2fde38b14610433578063f6b7c8e714610446575f80fd5b8063a22cb465146103cc578063b88d4fde146103df578063c26e428d146103f2578063c87b56dd146103fa575f80fd5b8063715018a6116100d9578063715018a6146103985780638da5cb5b146103a057806395d89b41146103b157806399ed8dc3146103b9575f80fd5b806362504a86146103575780636352211e1461035f57806363f55e431461037257806370a0823114610385575f80fd5b80631e1b97af1161017f578063495410151161014f57806349541015146103075780634f6ccce71461032957806353af42c11461033c57806354ce3f1f1461034f575f80fd5b80631e1b97af146102c657806323b872dd146102ce5780632f745c59146102e157806342842e0e146102f4575f80fd5b8063081812fc116101ba578063081812fc1461026c578063095ea7b31461029757806313886bdc146102ac57806318160ddd146102b4575f80fd5b806301ffc9a7146101e057806306fdde0314610208578063075fa0f91461021d575b5f80fd5b6101f36101ee3660046119f1565b610459565b60405190151581526020015b60405180910390f35b610210610483565b6040516101ff9190611a60565b61024e61022b366004611a88565b600e6020525f908152604090208054600182015460029092015490919060ff1683565b60408051938452602084019290925260ff16908201526060016101ff565b61027f61027a366004611aa1565b610512565b6040516001600160a01b0390911681526020016101ff565b6102aa6102a5366004611ab8565b610539565b005b610210610548565b6008545b6040519081526020016101ff565b6102b8601481565b6102aa6102dc366004611ae0565b6105d4565b6102b86102ef366004611ab8565b610662565b6102aa610302366004611ae0565b6106c5565b61031a610315366004611aa1565b6106e4565b6040516101ff93929190611b19565b6102b8610337366004611aa1565b610790565b600d5461027f906001600160a01b031681565b6102b8600f81565b6102b8600581565b61027f61036d366004611aa1565b6107e5565b6102aa610380366004611a88565b6107ef565b6102b8610393366004611a88565b610911565b6102aa610956565b600b546001600160a01b031661027f565b610210610969565b6102aa6103c7366004611a88565b610978565b6102aa6103da366004611b43565b610a32565b6102aa6103ed366004611c03565b610a3d565b6102b8600a81565b610210610408366004611aa1565b610a55565b6102b861041b366004611a88565b610c11565b6101f361042e366004611c7a565b610d63565b6102aa610441366004611a88565b610d90565b6102aa610454366004611cab565b610dca565b5f6001600160e01b0319821663780e9d6360e01b148061047d575061047d82610e00565b92915050565b60605f805461049190611cf0565b80601f01602080910402602001604051908101604052809291908181526020018280546104bd90611cf0565b80156105085780601f106104df57610100808354040283529160200191610508565b820191905f5260205f20905b8154815290600101906020018083116104eb57829003601f168201915b5050505050905090565b5f61051c82610e4f565b505f828152600460205260409020546001600160a01b031661047d565b610544828233610e87565b5050565b6010805461055590611cf0565b80601f016020809104026020016040519081016040528092919081815260200182805461058190611cf0565b80156105cc5780601f106105a3576101008083540402835291602001916105cc565b820191905f5260205f20905b8154815290600101906020018083116105af57829003601f168201915b505050505081565b6001600160a01b03821661060257604051633250574960e11b81525f60048201526024015b60405180910390fd5b5f61060e838333610e94565b9050836001600160a01b0316816001600160a01b03161461065c576040516364283d7b60e01b81526001600160a01b03808616600483015260248201849052821660448201526064016105f9565b50505050565b5f61066c83610911565b821061069d5760405163295f44f760e21b81526001600160a01b0384166004820152602481018390526044016105f9565b506001600160a01b03919091165f908152600660209081526040808320938352929052205490565b6106df83838360405180602001604052805f815250610a3d565b505050565b600f6020525f908152604090208054600182015460028301805460ff90931693919261070f90611cf0565b80601f016020809104026020016040519081016040528092919081815260200182805461073b90611cf0565b80156107865780601f1061075d57610100808354040283529160200191610786565b820191905f5260205f20905b81548152906001019060200180831161076957829003601f168201915b5050505050905083565b5f61079a60085490565b82106107c25760405163295f44f760e21b81525f6004820152602481018390526044016105f9565b600882815481106107d5576107d5611d28565b905f5260205f2001549050919050565b5f61047d82610e4f565b600b546001600160a01b031633146108495760405162461bcd60e51b815260206004820152601b60248201527f4f6e6c79206f776e65722063616e2073657420706c6174666f726d000000000060448201526064016105f9565b600d546001600160a01b0316156108995760405162461bcd60e51b8152602060048201526014602482015273141b185d199bdc9b48185b1c9958591e481cd95d60621b60448201526064016105f9565b6001600160a01b0381166108ef5760405162461bcd60e51b815260206004820152601860248201527f496e76616c696420706c6174666f726d2061646472657373000000000000000060448201526064016105f9565b600d80546001600160a01b0319166001600160a01b0392909216919091179055565b5f6001600160a01b03821661093b576040516322718ad960e21b81525f60048201526024016105f9565b506001600160a01b03165f9081526003602052604090205490565b61095e610f67565b6109675f610f94565b565b60606001805461049190611cf0565b600d546001600160a01b031633146109a25760405162461bcd60e51b81526004016105f990611d3c565b6109aa610fe5565b6001600160a01b0381165f908152600e602052604081208054909182906109d083611d92565b90915550504360018201556109e48261100f565b80546040519081526001600160a01b038316907f8867389dc1217dc31266587124e2684cf763acfe0b8d061deeef403db9214ed59060200160405180910390a250610a2f6001600a55565b50565b61054433838361125d565b610a488484846105d4565b61065c33858585856112fb565b5f818152600260205260409020546060906001600160a01b0316610ab25760405162461bcd60e51b8152602060048201526014602482015273151bdad95b88191bd95cc81b9bdd08195e1a5cdd60621b60448201526064016105f9565b5f828152600f602090815260408083208151606081018352815460ff1681526001820154938101939093526002810180549192840191610af190611cf0565b80601f0160208091040260200160405190810160405280929190818152602001828054610b1d90611cf0565b8015610b685780601f10610b3f57610100808354040283529160200191610b68565b820191905f5260205f20905b815481529060010190602001808311610b4b57829003601f168201915b50505050508152505090505f610b7d846107e5565b6001600160a01b0381165f908152600e60209081526040918290208251606081018452815481526001820154928101929092526002015460ff16818301529084015191925090610bcc86611421565b8451610bda9060ff16611421565b8351610be590611421565b604051602001610bf89493929190611daa565b6040516020818303038152906040529350505050919050565b600d545f906001600160a01b03163314610c3d5760405162461bcd60e51b81526004016105f990611d3c565b600c8054905f610c4c83611d92565b9091555050600c54610c5e838261151e565b6040518060600160405280600160ff1681526020014281526020016010604051602001610c8b9190611ea0565b60408051808303601f1901815291815291525f838152600f6020908152908290208351815460ff191660ff909116178155908301516001820155908201516002820190610cd89082611f08565b5050604080516060810182525f80825243602080840191825260018486018181526001600160a01b038b16808652600e9093528685209551865592519085015590516002909301805460ff191660ff90941693909317909255915184935090917f4cc0a9c4a99ddc700de1af2c9f916a7cbfdb71f14801ccff94061ad1ef8a804091a390505b919050565b6001600160a01b039182165f90815260056020908152604080832093909416825291909152205460ff1690565b610d98610f67565b6001600160a01b038116610dc157604051631e4fbdf760e01b81525f60048201526024016105f9565b610a2f81610f94565b600d546001600160a01b03163314610df45760405162461bcd60e51b81526004016105f990611d3c565b60106105448282611f08565b5f6001600160e01b031982166380ac58cd60e01b1480610e3057506001600160e01b03198216635b5e139f60e01b145b8061047d57506301ffc9a760e01b6001600160e01b031983161461047d565b5f818152600260205260408120546001600160a01b03168061047d57604051637e27328960e01b8152600481018490526024016105f9565b6106df8383836001611537565b5f80610ea185858561163b565b90506001600160a01b038116610efd57610ef884600880545f838152600960205260408120829055600182018355919091527ff3f7a9fe364faab93b216da50a3214154f22a0a2b415b23a84c8169e8b636ee30155565b610f20565b846001600160a01b0316816001600160a01b031614610f2057610f20818561172d565b6001600160a01b038516610f3c57610f37846117aa565b610f5f565b846001600160a01b0316816001600160a01b031614610f5f57610f5f8585611851565b949350505050565b600b546001600160a01b031633146109675760405163118cdaa760e01b81523360048201526024016105f9565b600b80546001600160a01b038381166001600160a01b0319831681179093556040519116919082907f8be0079c531659141344cd1fd0a4f28419497f9722a3daafe3b4186f6b6457e0905f90a35050565b6002600a540361100857604051633ee5aeb560e01b815260040160405180910390fd5b6002600a55565b6001600160a01b0381165f908152600e60205260408120906110318382610662565b5f818152600f602052604081206002808601549082018054949550919360ff90911692919061105f90611cf0565b80601f016020809104026020016040519081016040528092919081815260200182805461108b90611cf0565b80156110d65780601f106110ad576101008083540402835291602001916110d6565b820191905f5260205f20905b8154815290600101906020018083116110b957829003601f168201915b505050505090506014855f0154101580156110fa57506002850154600460ff909116105b1561112b576004915060106040516020016111159190611fc4565b60405160208183030381529060405290506111dc565b8454600f1180159061114657506002850154600360ff909116105b15611161576003915060106040516020016111159190611fe7565b8454600a11801590611179575060028581015460ff16105b1561119457600291506010604051602001611115919061200a565b84546005118015906111af57506002850154600160ff909116105b156111dc576001915060106040516020016111ca9190611ea0565b60405160208183030381529060405290505b600285015460ff838116911614611255576002808601805460ff851660ff19918216811790925585541617845583016112158282611f08565b5042600184015560405160ff8316815284907fe25938f59a5ea65a1200caa1c68dccbaac8a54eddfb8873da51a7c607b854def9060200160405180910390a25b505050505050565b6001600160a01b03821661128f57604051630b61174360e31b81526001600160a01b03831660048201526024016105f9565b6001600160a01b038381165f81815260056020908152604080832094871680845294825291829020805460ff191686151590811790915591519182527f17307eab39ab6107e8899845ad3d59bd9653f200f220920489ca2b5937696c31910160405180910390a3505050565b6001600160a01b0383163b1561141a57604051630a85bd0160e11b81526001600160a01b0384169063150b7a029061133d908890889087908790600401612033565b6020604051808303815f875af1925050508015611377575060408051601f3d908101601f191682019092526113749181019061206f565b60015b6113de573d8080156113a4576040519150601f19603f3d011682016040523d82523d5f602084013e6113a9565b606091505b5080515f036113d657604051633250574960e11b81526001600160a01b03851660048201526024016105f9565b805181602001fd5b6001600160e01b03198116630a85bd0160e11b1461125557604051633250574960e11b81526001600160a01b03851660048201526024016105f9565b5050505050565b6060815f036114475750506040805180820190915260018152600360fc1b602082015290565b815f5b8115611470578061145a81611d92565b91506114699050600a8361209e565b915061144a565b5f8167ffffffffffffffff81111561148a5761148a611b7c565b6040519080825280601f01601f1916602001820160405280156114b4576020820181803683370190505b5090505b8415610f5f576114c96001836120b1565b91506114d6600a866120c4565b6114e19060306120d7565b60f81b8183815181106114f6576114f6611d28565b60200101906001600160f81b03191690815f1a905350611517600a8661209e565b94506114b8565b610544828260405180602001604052805f81525061189f565b808061154b57506001600160a01b03821615155b1561160c575f61155a84610e4f565b90506001600160a01b038316158015906115865750826001600160a01b0316816001600160a01b031614155b801561159957506115978184610d63565b155b156115c25760405163a9fbf51f60e01b81526001600160a01b03841660048201526024016105f9565b811561160a5783856001600160a01b0316826001600160a01b03167f8c5be1e5ebec7d5bd14f71427d1e84f3dd0314c0f7b2291e5b200ac8c7c3b92560405160405180910390a45b505b50505f90815260046020526040902080546001600160a01b0319166001600160a01b0392909216919091179055565b5f828152600260205260408120546001600160a01b0390811690831615611667576116678184866118b6565b6001600160a01b038116156116a1576116825f855f80611537565b6001600160a01b0381165f90815260036020526040902080545f190190555b6001600160a01b038516156116cf576001600160a01b0385165f908152600360205260409020805460010190555b5f8481526002602052604080822080546001600160a01b0319166001600160a01b0389811691821790925591518793918516917fddf252ad1be2c89b69c2b068fc378daa952ba7f163c4a11628f55a4df523b3ef91a4949350505050565b5f61173783610911565b5f838152600760209081526040808320546001600160a01b038816845260069092529091209192509081831461178c575f83815260208281526040808320548584528184208190558352600790915290208290555b5f938452600760209081526040808620869055938552525081205550565b6008545f906117bb906001906120b1565b5f83815260096020526040812054600880549394509092849081106117e2576117e2611d28565b905f5260205f2001549050806008838154811061180157611801611d28565b5f918252602080832090910192909255828152600990915260408082208490558582528120556008805480611838576118386120ea565b600190038181905f5260205f20015f9055905550505050565b5f600161185d84610911565b61186791906120b1565b6001600160a01b039093165f908152600660209081526040808320868452825280832085905593825260079052919091209190915550565b6118a9838361191a565b6106df335f8585856112fb565b6118c183838361197b565b6106df576001600160a01b0383166118ef57604051637e27328960e01b8152600481018290526024016105f9565b60405163177e802f60e01b81526001600160a01b0383166004820152602481018290526044016105f9565b6001600160a01b03821661194357604051633250574960e11b81525f60048201526024016105f9565b5f61194f83835f610e94565b90506001600160a01b038116156106df576040516339e3563760e11b81525f60048201526024016105f9565b5f6001600160a01b03831615801590610f5f5750826001600160a01b0316846001600160a01b031614806119b457506119b48484610d63565b80610f5f5750505f908152600460205260409020546001600160a01b03908116911614919050565b6001600160e01b031981168114610a2f575f80fd5b5f60208284031215611a01575f80fd5b8135611a0c816119dc565b9392505050565b5f5b83811015611a2d578181015183820152602001611a15565b50505f910152565b5f8151808452611a4c816020860160208601611a13565b601f01601f19169290920160200192915050565b602081525f611a0c6020830184611a35565b80356001600160a01b0381168114610d5e575f80fd5b5f60208284031215611a98575f80fd5b611a0c82611a72565b5f60208284031215611ab1575f80fd5b5035919050565b5f8060408385031215611ac9575f80fd5b611ad283611a72565b946020939093013593505050565b5f805f60608486031215611af2575f80fd5b611afb84611a72565b9250611b0960208501611a72565b9150604084013590509250925092565b60ff84168152826020820152606060408201525f611b3a6060830184611a35565b95945050505050565b5f8060408385031215611b54575f80fd5b611b5d83611a72565b915060208301358015158114611b71575f80fd5b809150509250929050565b634e487b7160e01b5f52604160045260245ffd5b5f67ffffffffffffffff80841115611baa57611baa611b7c565b604051601f8501601f19908116603f01168101908282118183101715611bd257611bd2611b7c565b81604052809350858152868686011115611bea575f80fd5b858560208301375f602087830101525050509392505050565b5f805f8060808587031215611c16575f80fd5b611c1f85611a72565b9350611c2d60208601611a72565b925060408501359150606085013567ffffffffffffffff811115611c4f575f80fd5b8501601f81018713611c5f575f80fd5b611c6e87823560208401611b90565b91505092959194509250565b5f8060408385031215611c8b575f80fd5b611c9483611a72565b9150611ca260208401611a72565b90509250929050565b5f60208284031215611cbb575f80fd5b813567ffffffffffffffff811115611cd1575f80fd5b8201601f81018413611ce1575f80fd5b610f5f84823560208401611b90565b600181811c90821680611d0457607f821691505b602082108103611d2257634e487b7160e01b5f52602260045260245ffd5b50919050565b634e487b7160e01b5f52603260045260245ffd5b60208082526022908201527f4f6e6c7920446174614c6162656c696e67506c6174666f726d2063616e2063616040820152611b1b60f21b606082015260800190565b634e487b7160e01b5f52601160045260245ffd5b5f60018201611da357611da3611d7e565b5060010190565b5f8551611dbb818460208a01611a13565b855190830190611dcf818360208a01611a13565b6f2f6d657461646174613f6c6576656c3d60801b91019081528451611dfb816010840160208901611a13565b66267461736b733d60c81b601092909101918201528351611e23816017840160208801611a13565b016017019695505050505050565b5f8154611e3d81611cf0565b60018281168015611e555760018114611e6a57611e96565b60ff1984168752821515830287019450611e96565b855f526020805f205f5b85811015611e8d5781548a820152908401908201611e74565b50505082870194505b5050505092915050565b5f611eab8284611e31565b672f726f6f6b69652f60c01b81526008019392505050565b601f8211156106df575f81815260208120601f850160051c81016020861015611ee95750805b601f850160051c820191505b8181101561125557828155600101611ef5565b815167ffffffffffffffff811115611f2257611f22611b7c565b611f3681611f308454611cf0565b84611ec3565b602080601f831160018114611f69575f8415611f525750858301515b5f19600386901b1c1916600185901b178555611255565b5f85815260208120601f198616915b82811015611f9757888601518255948401946001909101908401611f78565b5085821015611fb457878501515f19600388901b60f8161c191681555b5050505050600190811b01905550565b5f611fcf8284611e31565b672f6d61737465722f60c01b81526008019392505050565b5f611ff28284611e31565b672f6578706572742f60c01b81526008019392505050565b5f6120158284611e31565b6d2f696e7465726d6564696174652f60901b8152600e019392505050565b6001600160a01b03858116825284166020820152604081018390526080606082018190525f9061206590830184611a35565b9695505050505050565b5f6020828403121561207f575f80fd5b8151611a0c816119dc565b634e487b7160e01b5f52601260045260245ffd5b5f826120ac576120ac61208a565b500490565b8181038181111561047d5761047d611d7e565b5f826120d2576120d261208a565b500690565b8082018082111561047d5761047d611d7e565b634e487b7160e01b5f52603160045260245ffdfea264697066735822122088c22f4003f839b262aa099663a5f154d1b1e0582f66124a759018b01e707a7764736f6c63430008140033","linkReferences":{}},"methodIdentifiers":{"LEVEL_1_THRESHOLD()":"62504a86","LEVEL_2_THRESHOLD()":"c26e428d","LEVEL_3_THRESHOLD()":"54ce3f1f","LEVEL_4_THRESHOLD()":"1e1b97af","approve(address,uint256)":"095ea7b3","balanceOf(address)":"70a08231","baseEndpoint()":"13886bdc","dataLabelingPlatform()":"53af42c1","getApproved(uint256)":"081812fc","isApprovedForAll(address,address)":"e985e9c5","mintInitialNFT(address)":"de6a594d","name()":"06fdde03","nftMetadata(uint256)":"49541015","owner()":"8da5cb5b","ownerOf(uint256)":"6352211e","renounceOwnership()":"715018a6","safeTransferFrom(address,address,uint256)":"42842e0e","safeTransferFrom(address,address,uint256,bytes)":"b88d4fde","setApprovalForAll(address,bool)":"a22cb465","setBaseEndpoint(string)":"f6b7c8e7","setDataLabelingPlatform(address)":"63f55e43","supportsInterface(bytes4)":"01ffc9a7","symbol()":"95d89b41","tokenByIndex(uint256)":"4f6ccce7","tokenOfOwnerByIndex(address,uint256)":"2f745c59","tokenURI(uint256)":"c87b56dd","totalSupply()":"18160ddd","transferFrom(address,address,uint256)":"23b872dd","transferOwnership(address)":"f2fde38b","updatePerformance(address)":"99ed8dc3","userPerformance(address)":"075fa0f9"},"id":49}