{"abi":[{"type":"constructor","inputs":[{"name":"_dataLabelingPlatform","type":"address","internalType":"address"},{"name":"_baseEndpoint","type":"string","internalType":"string"}],"stateMutability":"nonpayable"},{"type":"function","name":"EXPERT_THRESHOLD","inputs":[],"outputs":[{"name":"","type":"uint256","internalType":"uint256"}],"stateMutability":"view"},{"type":"function","name":"INTERMEDIATE_THRESHOLD","inputs":[],"outputs":[{"name":"","type":"uint256","internalType":"uint256"}],"stateMutability":"view"},{"type":"function","name":"MASTER_THRESHOLD","inputs":[],"outputs":[{"name":"","type":"uint256","internalType":"uint256"}],"stateMutability":"view"},{"type":"function","name":"MIN_QUALITY_SCORE","inputs":[],"outputs":[{"name":"","type":"uint256","internalType":"uint256"}],"stateMutability":"view"},{"type":"function","name":"ROOKIE_THRESHOLD","inputs":[],"outputs":[{"name":"","type":"uint256","internalType":"uint256"}],"stateMutability":"view"},{"type":"function","name":"approve","inputs":[{"name":"to","type":"address","internalType":"address"},{"name":"tokenId","type":"uint256","internalType":"uint256"}],"outputs":[],"stateMutability":"nonpayable"},{"type":"function","name":"balanceOf","inputs":[{"name":"owner","type":"address","internalType":"address"}],"outputs":[{"name":"","type":"uint256","internalType":"uint256"}],"stateMutability":"view"},{"type":"function","name":"baseEndpoint","inputs":[],"outputs":[{"name":"","type":"string","internalType":"string"}],"stateMutability":"view"},{"type":"function","name":"dataLabelingPlatform","inputs":[],"outputs":[{"name":"","type":"address","internalType":"address"}],"stateMutability":"view"},{"type":"function","name":"getApproved","inputs":[{"name":"tokenId","type":"uint256","internalType":"uint256"}],"outputs":[{"name":"","type":"address","internalType":"address"}],"stateMutability":"view"},{"type":"function","name":"isApprovedForAll","inputs":[{"name":"owner","type":"address","internalType":"address"},{"name":"operator","type":"address","internalType":"address"}],"outputs":[{"name":"","type":"bool","internalType":"bool"}],"stateMutability":"view"},{"type":"function","name":"mintInitialNFT","inputs":[{"name":"user","type":"address","internalType":"address"}],"outputs":[{"name":"","type":"uint256","internalType":"uint256"}],"stateMutability":"nonpayable"},{"type":"function","name":"name","inputs":[],"outputs":[{"name":"","type":"string","internalType":"string"}],"stateMutability":"view"},{"type":"function","name":"nftMetadata","inputs":[{"name":"","type":"uint256","internalType":"uint256"}],"outputs":[{"name":"level","type":"uint8","internalType":"uint8"},{"name":"qualityScore","type":"uint256","internalType":"uint256"},{"name":"lastEvolution","type":"uint256","internalType":"uint256"},{"name":"baseURI","type":"string","internalType":"string"}],"stateMutability":"view"},{"type":"function","name":"ownerOf","inputs":[{"name":"tokenId","type":"uint256","internalType":"uint256"}],"outputs":[{"name":"","type":"address","internalType":"address"}],"stateMutability":"view"},{"type":"function","name":"safeTransferFrom","inputs":[{"name":"from","type":"address","internalType":"address"},{"name":"to","type":"address","internalType":"address"},{"name":"tokenId","type":"uint256","internalType":"uint256"}],"outputs":[],"stateMutability":"nonpayable"},{"type":"function","name":"safeTransferFrom","inputs":[{"name":"from","type":"address","internalType":"address"},{"name":"to","type":"address","internalType":"address"},{"name":"tokenId","type":"uint256","internalType":"uint256"},{"name":"data","type":"bytes","internalType":"bytes"}],"outputs":[],"stateMutability":"nonpayable"},{"type":"function","name":"setApprovalForAll","inputs":[{"name":"operator","type":"address","internalType":"address"},{"name":"approved","type":"bool","internalType":"bool"}],"outputs":[],"stateMutability":"nonpayable"},{"type":"function","name":"setBaseEndpoint","inputs":[{"name":"_newEndpoint","type":"string","internalType":"string"}],"outputs":[],"stateMutability":"nonpayable"},{"type":"function","name":"supportsInterface","inputs":[{"name":"interfaceId","type":"bytes4","internalType":"bytes4"}],"outputs":[{"name":"","type":"bool","internalType":"bool"}],"stateMutability":"view"},{"type":"function","name":"symbol","inputs":[],"outputs":[{"name":"","type":"string","internalType":"string"}],"stateMutability":"view"},{"type":"function","name":"tokenByIndex","inputs":[{"name":"index","type":"uint256","internalType":"uint256"}],"outputs":[{"name":"","type":"uint256","internalType":"uint256"}],"stateMutability":"view"},{"type":"function","name":"tokenOfOwnerByIndex","inputs":[{"name":"owner","type":"address","internalType":"address"},{"name":"index","type":"uint256","internalType":"uint256"}],"outputs":[{"name":"","type":"uint256","internalType":"uint256"}],"stateMutability":"view"},{"type":"function","name":"tokenURI","inputs":[{"name":"tokenId","type":"uint256","internalType":"uint256"}],"outputs":[{"name":"","type":"string","internalType":"string"}],"stateMutability":"view"},{"type":"function","name":"totalSupply","inputs":[],"outputs":[{"name":"","type":"uint256","internalType":"uint256"}],"stateMutability":"view"},{"type":"function","name":"transferFrom","inputs":[{"name":"from","type":"address","internalType":"address"},{"name":"to","type":"address","internalType":"address"},{"name":"tokenId","type":"uint256","internalType":"uint256"}],"outputs":[],"stateMutability":"nonpayable"},{"type":"function","name":"updatePerformance","inputs":[{"name":"user","type":"address","internalType":"address"},{"name":"qualityScore","type":"uint256","internalType":"uint256"}],"outputs":[],"stateMutability":"nonpayable"},{"type":"function","name":"userPerformance","inputs":[{"name":"","type":"address","internalType":"address"}],"outputs":[{"name":"tasksCompleted","type":"uint256","internalType":"uint256"},{"name":"totalQualityScore","type":"uint256","internalType":"uint256"},{"name":"averageQualityScore","type":"uint256","internalType":"uint256"},{"name":"lastUpdateBlock","type":"uint256","internalType":"uint256"},{"name":"currentLevel","type":"uint8","internalType":"uint8"},{"name":"highestQualityScore","type":"uint256","internalType":"uint256"},{"name":"consecutiveHighScores","type":"uint256","internalType":"uint256"}],"stateMutability":"view"},{"type":"event","name":"Approval","inputs":[{"name":"owner","type":"address","indexed":true,"internalType":"address"},{"name":"approved","type":"address","indexed":true,"internalType":"address"},{"name":"tokenId","type":"uint256","indexed":true,"internalType":"uint256"}],"anonymous":false},{"type":"event","name":"ApprovalForAll","inputs":[{"name":"owner","type":"address","indexed":true,"internalType":"address"},{"name":"operator","type":"address","indexed":true,"internalType":"address"},{"name":"approved","type":"bool","indexed":false,"internalType":"bool"}],"anonymous":false},{"type":"event","name":"ConsecutiveHighScoreAchieved","inputs":[{"name":"user","type":"address","indexed":true,"internalType":"address"},{"name":"count","type":"uint256","indexed":false,"internalType":"uint256"}],"anonymous":false},{"type":"event","name":"NFTEvolved","inputs":[{"name":"tokenId","type":"uint256","indexed":true,"internalType":"uint256"},{"name":"newLevel","type":"uint8","indexed":false,"internalType":"uint8"},{"name":"qualityScore","type":"uint256","indexed":false,"internalType":"uint256"}],"anonymous":false},{"type":"event","name":"NFTMinted","inputs":[{"name":"user","type":"address","indexed":true,"internalType":"address"},{"name":"tokenId","type":"uint256","indexed":true,"internalType":"uint256"}],"anonymous":false},{"type":"event","name":"PerformanceUpdated","inputs":[{"name":"user","type":"address","indexed":true,"internalType":"address"},{"name":"tasksCompleted","type":"uint256","indexed":false,"internalType":"uint256"},{"name":"qualityScore","type":"uint256","indexed":false,"internalType":"uint256"}],"anonymous":false},{"type":"event","name":"QualityScoreUpdated","inputs":[{"name":"user","type":"address","indexed":true,"internalType":"address"},{"name":"newScore","type":"uint256","indexed":false,"internalType":"uint256"},{"name":"averageScore","type":"uint256","indexed":false,"internalType":"uint256"}],"anonymous":false},{"type":"event","name":"Transfer","inputs":[{"name":"from","type":"address","indexed":true,"internalType":"address"},{"name":"to","type":"address","indexed":true,"internalType":"address"},{"name":"tokenId","type":"uint256","indexed":true,"internalType":"uint256"}],"anonymous":false},{"type":"error","name":"ERC721EnumerableForbiddenBatchMint","inputs":[]},{"type":"error","name":"ERC721IncorrectOwner","inputs":[{"name":"sender","type":"address","internalType":"address"},{"name":"tokenId","type":"uint256","internalType":"uint256"},{"name":"owner","type":"address","internalType":"address"}]},{"type":"error","name":"ERC721InsufficientApproval","inputs":[{"name":"operator","type":"address","internalType":"address"},{"name":"tokenId","type":"uint256","internalType":"uint256"}]},{"type":"error","name":"ERC721InvalidApprover","inputs":[{"name":"approver","type":"address","internalType":"address"}]},{"type":"error","name":"ERC721InvalidOperator","inputs":[{"name":"operator","type":"address","internalType":"address"}]},{"type":"error","name":"ERC721InvalidOwner","inputs":[{"name":"owner","type":"address","internalType":"address"}]},{"type":"error","name":"ERC721InvalidReceiver","inputs":[{"name":"receiver","type":"address","internalType":"address"}]},{"type":"error","name":"ERC721InvalidSender","inputs":[{"name":"sender","type":"address","internalType":"address"}]},{"type":"error","name":"ERC721NonexistentToken","inputs":[{"name":"tokenId","type":"uint256","internalType":"uint256"}]},{"type":"error","name":"ERC721OutOfBoundsIndex","inputs":[{"name":"owner","type":"address","internalType":"address"},{"name":"index","type":"uint256","internalType":"uint256"}]},{"type":"error","name":"PerformanceNFT__InvalidQualityScore","inputs":[]},{"type":"error","name":"ReentrancyGuardReentrantCall","inputs":[]}],"bytecode":{"object":"0x60a060405234801561000f575f5ffd5b5060405161248e38038061248e83398101604081905261002e916100cb565b6040518060400160405280600f81526020016e14195c999bdc9b585b98d948139195608a1b815250604051806040016040528060048152602001632822a92360e11b815250815f9081610081919061021e565b50600161008e828261021e565b50506001600a55506001600160a01b038216608052600e6100af828261021e565b5050506102d8565b634e487b7160e01b5f52604160045260245ffd5b5f5f604083850312156100dc575f5ffd5b82516001600160a01b03811681146100f2575f5ffd5b60208401519092506001600160401b0381111561010d575f5ffd5b8301601f8101851361011d575f5ffd5b80516001600160401b03811115610136576101366100b7565b604051601f8201601f19908116603f011681016001600160401b0381118282101715610164576101646100b7565b60405281815282820160200187101561017b575f5ffd5b8160208401602083015e5f602083830101528093505050509250929050565b600181811c908216806101ae57607f821691505b6020821081036101cc57634e487b7160e01b5f52602260045260245ffd5b50919050565b601f82111561021957805f5260205f20601f840160051c810160208510156101f75750805b601f840160051c820191505b81811015610216575f8155600101610203565b50505b505050565b81516001600160401b03811115610237576102376100b7565b61024b81610245845461019a565b846101d2565b6020601f82116001811461027d575f83156102665750848201515b5f19600385901b1c1916600184901b178455610216565b5f84815260208120601f198516915b828110156102ac578785015182556020948501946001909201910161028c565b50848210156102c957868401515f19600387901b60f8161c191681555b50505050600190811b01905550565b6080516121896103055f395f818161036c015281816107fa01528181610ca00152610e8601526121895ff3fe608060405234801561000f575f5ffd5b50600436106101bb575f3560e01c80634f6ccce7116100f3578063a22cb46511610093578063c87b56dd1161006e578063c87b56dd14610405578063de6a594d14610418578063e985e9c51461042b578063f6b7c8e71461043e575f5ffd5b8063a22cb465146103d7578063a2d09ae8146103ea578063b88d4fde146103f2575f5ffd5b80636e622bbf116100ce5780636e622bbf146103a157806370a08231146103b457806394b065f6146103c757806395d89b41146103cf575f5ffd5b80634f6ccce71461035457806353af42c1146103675780636352211e1461038e575f5ffd5b806318160ddd1161015e57806342842e0e1161013957806342842e0e1461030e57806347da14c21461032157806349541015146103295780634a6091fb1461034c575f5ffd5b806318160ddd146102e057806323b872dd146102e85780632f745c59146102fb575f5ffd5b8063081812fc11610199578063081812fc14610282578063095ea7b3146102ad5780631180408c146102c257806313886bdc146102d8575f5ffd5b806301ffc9a7146101bf57806306fdde03146101e7578063075fa0f9146101fc575b5f5ffd5b6101d26101cd366004611a38565b610451565b60405190151581526020015b60405180910390f35b6101ef61047b565b6040516101de9190611a88565b61024a61020a366004611ab0565b600c6020525f90815260409020805460018201546002830154600384015460048501546005860154600690960154949593949293919260ff909116919087565b60408051978852602088019690965294860193909352606085019190915260ff16608084015260a083015260c082015260e0016101de565b610295610290366004611ac9565b61050a565b6040516001600160a01b0390911681526020016101de565b6102c06102bb366004611ae0565b610531565b005b6102ca601481565b6040519081526020016101de565b6101ef610540565b6008546102ca565b6102c06102f6366004611b08565b6105cc565b6102ca610309366004611ae0565b61065a565b6102c061031c366004611b08565b6106bd565b6102ca606481565b61033c610337366004611ac9565b6106dc565b6040516101de9493929190611b42565b6102ca600581565b6102ca610362366004611ac9565b610790565b6102957f000000000000000000000000000000000000000000000000000000000000000081565b61029561039c366004611ac9565b6107e5565b6102c06103af366004611ae0565b6107ef565b6102ca6103c2366004611ab0565b610a07565b6102ca603281565b6101ef610a4c565b6102c06103e5366004611b73565b610a5b565b6102ca604681565b6102c0610400366004611c37565b610a66565b6101ef610413366004611ac9565b610a7e565b6102ca610426366004611ab0565b610c94565b6101d2610439366004611cae565b610e4e565b6102c061044c366004611cdf565b610e7b565b5f6001600160e01b0319821663780e9d6360e01b1480610475575061047582610ecf565b92915050565b60605f805461048990611d24565b80601f01602080910402602001604051908101604052809291908181526020018280546104b590611d24565b80156105005780601f106104d757610100808354040283529160200191610500565b820191905f5260205f20905b8154815290600101906020018083116104e357829003601f168201915b5050505050905090565b5f61051482610f1e565b505f828152600460205260409020546001600160a01b0316610475565b61053c828233610f56565b5050565b600e805461054d90611d24565b80601f016020809104026020016040519081016040528092919081815260200182805461057990611d24565b80156105c45780601f1061059b576101008083540402835291602001916105c4565b820191905f5260205f20905b8154815290600101906020018083116105a757829003601f168201915b505050505081565b6001600160a01b0382166105fa57604051633250574960e11b81525f60048201526024015b60405180910390fd5b5f610606838333610f63565b9050836001600160a01b0316816001600160a01b031614610654576040516364283d7b60e01b81526001600160a01b03808616600483015260248201849052821660448201526064016105f1565b50505050565b5f61066483610a07565b82106106955760405163295f44f760e21b81526001600160a01b0384166004820152602481018390526044016105f1565b506001600160a01b03919091165f908152600660209081526040808320938352929052205490565b6106d783838360405180602001604052805f815250610a66565b505050565b600d6020525f9081526040902080546001820154600283015460038401805460ff90941694929391929161070f90611d24565b80601f016020809104026020016040519081016040528092919081815260200182805461073b90611d24565b80156107865780601f1061075d57610100808354040283529160200191610786565b820191905f5260205f20905b81548152906001019060200180831161076957829003601f168201915b5050505050905084565b5f61079a60085490565b82106107c25760405163295f44f760e21b81525f6004820152602481018390526044016105f1565b600882815481106107d5576107d5611d5c565b905f5260205f2001549050919050565b5f61047582610f1e565b336001600160a01b037f000000000000000000000000000000000000000000000000000000000000000016146108375760405162461bcd60e51b81526004016105f190611d70565b61083f611036565b606481111561086157604051631e33700960e11b815260040160405180910390fd5b6001600160a01b0382165f908152600c6020526040812080549091829061088783611dc6565b919050555081816001015f82825461089f9190611dde565b9091555050805460018201546108b59190611e05565b600282015560058101548211156108ce57600581018290555b6046821061095057600681018054905f6108e783611dc6565b9190505550600581600601546108fd9190611e18565b5f0361094b57826001600160a01b03167f313a22bc381faab811c99ec30716d4f02a99bb52bf5044309c45820f757a6f31826006015460405161094291815260200190565b60405180910390a25b610957565b5f60068201555b43600382015561096683611060565b805460408051918252602082018490526001600160a01b038516917f3d95ef70101318503366efd9e6b901f992f45bf1e94884bb0f4f311fbba3d425910160405180910390a2826001600160a01b03167f67eca6a3a43e1f5a622a92b5d4d2f04947a9d3164c3f37a1eeb460dd6541bd1c8383600201546040516109f4929190918252602082015260400190565b60405180910390a25061053c6001600a55565b5f6001600160a01b038216610a31576040516322718ad960e21b81525f60048201526024016105f1565b506001600160a01b03165f9081526003602052604090205490565b60606001805461048990611d24565b61053c3383836112a1565b610a718484846105cc565b610654338585858561133f565b5f818152600260205260409020546060906001600160a01b0316610adb5760405162461bcd60e51b8152602060048201526014602482015273151bdad95b88191bd95cc81b9bdd08195e1a5cdd60621b60448201526064016105f1565b5f828152600d602090815260408083208151608081018352815460ff168152600182015493810193909352600281015491830191909152600381018054606084019190610b2790611d24565b80601f0160208091040260200160405190810160405280929190818152602001828054610b5390611d24565b8015610b9e5780601f10610b7557610100808354040283529160200191610b9e565b820191905f5260205f20905b815481529060010190602001808311610b8157829003601f168201915b50505050508152505090505f610bb3846107e5565b6001600160a01b0381165f908152600c6020908152604091829020825160e081018452815481526001820154928101929092526002810154928201929092526003820154606080830191909152600483015460ff166080830152600583015460a083015260069092015460c08201529084015191925090610c3386611465565b8451610c419060ff16611465565b8351610c4c90611465565b610c598560400151611465565b610c668660a00151611465565b604051602001610c7b96959493929190611e42565b6040516020818303038152906040529350505050919050565b5f336001600160a01b037f00000000000000000000000000000000000000000000000000000000000000001614610cdd5760405162461bcd60e51b81526004016105f190611d70565b600b8054905f610cec83611dc6565b9091555050600b54610cfe8382611562565b6040518060800160405280600160ff1681526020015f8152602001428152602001600e604051602001610d319190611f4e565b60408051808303601f1901815291815291525f838152600d6020908152908290208351815460ff191660ff90911617815590830151600182015590820151600282015560608201516003820190610d889082611fb5565b50506040805160e0810182525f8082526020808301828152838501838152436060860190815260016080870181815260a0880187815260c089018881526001600160a01b038f16808a52600c9098528a892099518a559551928901929092559251600288015590516003870155905160048601805460ff191660ff90921691909117905551600585015551600690930192909255915184935090917f4cc0a9c4a99ddc700de1af2c9f916a7cbfdb71f14801ccff94061ad1ef8a804091a390505b919050565b6001600160a01b039182165f90815260056020908152604080832093909416825291909152205460ff1690565b336001600160a01b037f00000000000000000000000000000000000000000000000000000000000000001614610ec35760405162461bcd60e51b81526004016105f190611d70565b600e61053c8282611fb5565b5f6001600160e01b031982166380ac58cd60e01b1480610eff57506001600160e01b03198216635b5e139f60e01b145b8061047557506301ffc9a760e01b6001600160e01b0319831614610475565b5f818152600260205260408120546001600160a01b03168061047557604051637e27328960e01b8152600481018490526024016105f1565b6106d7838383600161157b565b5f5f610f7085858561167f565b90506001600160a01b038116610fcc57610fc784600880545f838152600960205260408120829055600182018355919091527ff3f7a9fe364faab93b216da50a3214154f22a0a2b415b23a84c8169e8b636ee30155565b610fef565b846001600160a01b0316816001600160a01b031614610fef57610fef8185611771565b6001600160a01b03851661100b57611006846117ee565b61102e565b846001600160a01b0316816001600160a01b03161461102e5761102e8585611895565b949350505050565b6002600a540361105957604051633ee5aeb560e01b815260040160405180910390fd5b6002600a55565b6001600160a01b0381165f908152600c6020526040812090611082838261065a565b5f818152600d60205260409020600284015491925090604611156110a65750505050565b600483015460038201805460ff909216915f91906110c390611d24565b80601f01602080910402602001604051908101604052809291908181526020018280546110ef90611d24565b801561113a5780601f106111115761010080835404028352916020019161113a565b820191905f5260205f20905b81548152906001019060200180831161111d57829003601f168201915b505050505090506064855f01541015801561115b575060048581015460ff16105b1561118c5760049150600e6040516020016111769190612070565b604051602081830303815290604052905061120a565b84546032118015906111a757506004850154600360ff909116105b156111c25760039150600e6040516020016111769190612093565b84546014118015906111dd57506004850154600260ff909116105b1561120a5760029150600e6040516020016111f891906120b6565b60405160208183030381529060405290505b600485015460ff8381169116146112995760048501805460ff841660ff199182168117909255845416178355600383016112448282611fb5565b5042600284810191909155850154600184018190556040805160ff85168152602081019290925285917f4b401927936d71537d06784df05a2ea6475fb271bf949b9a5cb4f261cef075c3910160405180910390a25b505050505050565b6001600160a01b0382166112d357604051630b61174360e31b81526001600160a01b03831660048201526024016105f1565b6001600160a01b038381165f81815260056020908152604080832094871680845294825291829020805460ff191686151590811790915591519182527f17307eab39ab6107e8899845ad3d59bd9653f200f220920489ca2b5937696c31910160405180910390a3505050565b6001600160a01b0383163b1561145e57604051630a85bd0160e11b81526001600160a01b0384169063150b7a02906113819088908890879087906004016120df565b6020604051808303815f875af19250505080156113bb575060408051601f3d908101601f191682019092526113b891810190612111565b60015b611422573d8080156113e8576040519150601f19603f3d011682016040523d82523d5f602084013e6113ed565b606091505b5080515f0361141a57604051633250574960e11b81526001600160a01b03851660048201526024016105f1565b805181602001fd5b6001600160e01b03198116630a85bd0160e11b1461129957604051633250574960e11b81526001600160a01b03851660048201526024016105f1565b5050505050565b6060815f0361148b5750506040805180820190915260018152600360fc1b602082015290565b815f5b81156114b4578061149e81611dc6565b91506114ad9050600a83611e05565b915061148e565b5f8167ffffffffffffffff8111156114ce576114ce611bac565b6040519080825280601f01601f1916602001820160405280156114f8576020820181803683370190505b5090505b841561102e5761150d60018361212c565b915061151a600a86611e18565b611525906030611dde565b60f81b81838151811061153a5761153a611d5c565b60200101906001600160f81b03191690815f1a90535061155b600a86611e05565b94506114fc565b61053c828260405180602001604052805f8152506118e3565b808061158f57506001600160a01b03821615155b15611650575f61159e84610f1e565b90506001600160a01b038316158015906115ca5750826001600160a01b0316816001600160a01b031614155b80156115dd57506115db8184610e4e565b155b156116065760405163a9fbf51f60e01b81526001600160a01b03841660048201526024016105f1565b811561164e5783856001600160a01b0316826001600160a01b03167f8c5be1e5ebec7d5bd14f71427d1e84f3dd0314c0f7b2291e5b200ac8c7c3b92560405160405180910390a45b505b50505f90815260046020526040902080546001600160a01b0319166001600160a01b0392909216919091179055565b5f828152600260205260408120546001600160a01b03908116908316156116ab576116ab8184866118fa565b6001600160a01b038116156116e5576116c65f855f5f61157b565b6001600160a01b0381165f90815260036020526040902080545f190190555b6001600160a01b03851615611713576001600160a01b0385165f908152600360205260409020805460010190555b5f8481526002602052604080822080546001600160a01b0319166001600160a01b0389811691821790925591518793918516917fddf252ad1be2c89b69c2b068fc378daa952ba7f163c4a11628f55a4df523b3ef91a4949350505050565b5f61177b83610a07565b5f838152600760209081526040808320546001600160a01b03881684526006909252909120919250908183146117d0575f83815260208281526040808320548584528184208190558352600790915290208290555b5f938452600760209081526040808620869055938552525081205550565b6008545f906117ff9060019061212c565b5f838152600960205260408120546008805493945090928490811061182657611826611d5c565b905f5260205f2001549050806008838154811061184557611845611d5c565b5f91825260208083209091019290925582815260099091526040808220849055858252812055600880548061187c5761187c61213f565b600190038181905f5260205f20015f9055905550505050565b5f60016118a184610a07565b6118ab919061212c565b6001600160a01b039093165f908152600660209081526040808320868452825280832085905593825260079052919091209190915550565b6118ed838361195e565b6106d7335f85858561133f565b6119058383836119bf565b6106d7576001600160a01b03831661193357604051637e27328960e01b8152600481018290526024016105f1565b60405163177e802f60e01b81526001600160a01b0383166004820152602481018290526044016105f1565b6001600160a01b03821661198757604051633250574960e11b81525f60048201526024016105f1565b5f61199383835f610f63565b90506001600160a01b038116156106d7576040516339e3563760e11b81525f60048201526024016105f1565b5f6001600160a01b0383161580159061102e5750826001600160a01b0316846001600160a01b031614806119f857506119f88484610e4e565b8061102e5750505f908152600460205260409020546001600160a01b03908116911614919050565b6001600160e01b031981168114611a35575f5ffd5b50565b5f60208284031215611a48575f5ffd5b8135611a5381611a20565b9392505050565b5f81518084528060208401602086015e5f602082860101526020601f19601f83011685010191505092915050565b602081525f611a536020830184611a5a565b80356001600160a01b0381168114610e49575f5ffd5b5f60208284031215611ac0575f5ffd5b611a5382611a9a565b5f60208284031215611ad9575f5ffd5b5035919050565b5f5f60408385031215611af1575f5ffd5b611afa83611a9a565b946020939093013593505050565b5f5f5f60608486031215611b1a575f5ffd5b611b2384611a9a565b9250611b3160208501611a9a565b929592945050506040919091013590565b60ff85168152836020820152826040820152608060608201525f611b696080830184611a5a565b9695505050505050565b5f5f60408385031215611b84575f5ffd5b611b8d83611a9a565b915060208301358015158114611ba1575f5ffd5b809150509250929050565b634e487b7160e01b5f52604160045260245ffd5b5f5f67ffffffffffffffff841115611bda57611bda611bac565b50604051601f19601f85018116603f0116810181811067ffffffffffffffff82111715611c0957611c09611bac565b604052838152905080828401851015611c20575f5ffd5b838360208301375f60208583010152509392505050565b5f5f5f5f60808587031215611c4a575f5ffd5b611c5385611a9a565b9350611c6160208601611a9a565b925060408501359150606085013567ffffffffffffffff811115611c83575f5ffd5b8501601f81018713611c93575f5ffd5b611ca287823560208401611bc0565b91505092959194509250565b5f5f60408385031215611cbf575f5ffd5b611cc883611a9a565b9150611cd660208401611a9a565b90509250929050565b5f60208284031215611cef575f5ffd5b813567ffffffffffffffff811115611d05575f5ffd5b8201601f81018413611d15575f5ffd5b61102e84823560208401611bc0565b600181811c90821680611d3857607f821691505b602082108103611d5657634e487b7160e01b5f52602260045260245ffd5b50919050565b634e487b7160e01b5f52603260045260245ffd5b60208082526022908201527f4f6e6c7920446174614c6162656c696e67506c6174666f726d2063616e2063616040820152611b1b60f21b606082015260800190565b634e487b7160e01b5f52601160045260245ffd5b5f60018201611dd757611dd7611db2565b5060010190565b8082018082111561047557610475611db2565b634e487b7160e01b5f52601260045260245ffd5b5f82611e1357611e13611df1565b500490565b5f82611e2657611e26611df1565b500690565b5f81518060208401855e5f93019283525090919050565b5f611e56611e50838a611e2b565b88611e2b565b6f2f6d657461646174613f6c6576656c3d60801b8152611e796010820188611e2b565b905066267461736b733d60c81b8152611e956007820187611e2b565b905068267175616c6974793d60b81b8152611eb36009820186611e2b565b90506a266869676873636f72653d60a81b8152611ed3600b820185611e2b565b9998505050505050505050565b5f8154611eec81611d24565b600182168015611f035760018114611f1857611f45565b60ff1983168652811515820286019350611f45565b845f5260205f205f5b83811015611f3d57815488820152600190910190602001611f21565b505081860193505b50505092915050565b5f611f598284611ee0565b672f726f6f6b69652f60c01b81526008019392505050565b601f8211156106d757805f5260205f20601f840160051c81016020851015611f965750805b601f840160051c820191505b8181101561145e575f8155600101611fa2565b815167ffffffffffffffff811115611fcf57611fcf611bac565b611fe381611fdd8454611d24565b84611f71565b6020601f821160018114612015575f8315611ffe5750848201515b5f19600385901b1c1916600184901b17845561145e565b5f84815260208120601f198516915b828110156120445787850151825560209485019460019092019101612024565b508482101561206157868401515f19600387901b60f8161c191681555b50505050600190811b01905550565b5f61207b8284611ee0565b672f6d61737465722f60c01b81526008019392505050565b5f61209e8284611ee0565b672f6578706572742f60c01b81526008019392505050565b5f6120c18284611ee0565b6d2f696e7465726d6564696174652f60901b8152600e019392505050565b6001600160a01b03858116825284166020820152604081018390526080606082018190525f90611b6990830184611a5a565b5f60208284031215612121575f5ffd5b8151611a5381611a20565b8181038181111561047557610475611db2565b634e487b7160e01b5f52603160045260245ffdfea26469706673582212206b831346b471294c4d4d8399a63bd40e4557eadcb80fb263dbaece7cb934bfd164736f6c634300081c0033","linkReferences":{}},"methodIdentifiers":{"EXPERT_THRESHOLD()":"94b065f6","INTERMEDIATE_THRESHOLD()":"1180408c","MASTER_THRESHOLD()":"47da14c2","MIN_QUALITY_SCORE()":"a2d09ae8","ROOKIE_THRESHOLD()":"4a6091fb","approve(address,uint256)":"095ea7b3","balanceOf(address)":"70a08231","baseEndpoint()":"13886bdc","dataLabelingPlatform()":"53af42c1","getApproved(uint256)":"081812fc","isApprovedForAll(address,address)":"e985e9c5","mintInitialNFT(address)":"de6a594d","name()":"06fdde03","nftMetadata(uint256)":"49541015","ownerOf(uint256)":"6352211e","safeTransferFrom(address,address,uint256)":"42842e0e","safeTransferFrom(address,address,uint256,bytes)":"b88d4fde","setApprovalForAll(address,bool)":"a22cb465","setBaseEndpoint(string)":"f6b7c8e7","supportsInterface(bytes4)":"01ffc9a7","symbol()":"95d89b41","tokenByIndex(uint256)":"4f6ccce7","tokenOfOwnerByIndex(address,uint256)":"2f745c59","tokenURI(uint256)":"c87b56dd","totalSupply()":"18160ddd","transferFrom(address,address,uint256)":"23b872dd","updatePerformance(address,uint256)":"6e622bbf","userPerformance(address)":"075fa0f9"},"id":48}